{"fileName":"CustomERC20.sol","contractName":"CustomERC20","source":"// contracts/CustomERC20.sol\npragma solidity  >=0.5.0;\n\nimport \"zos-lib/contracts/Initializable.sol\";\nimport \"openzeppelin-eth/contracts/token/ERC20/ERC20.sol\";\nimport \"openzeppelin-eth/contracts/token/ERC20/ERC20Detailed.sol\";\n\ncontract CustomERC20 is Initializable, ERC20, ERC20Detailed {\n  function initialize(\n    string memory name, string memory symbol, uint8 decimals, uint256 initialSupply, address initialHolder\n  ) public initializer {\n    require(initialSupply > 0);\n    ERC20Detailed.initialize(name, symbol, decimals);\n    _mint(initialHolder, initialSupply);\n  }\n\n  function transferMany(address[] memory tos, uint256 value) public {\n    for (uint256 i = 0; i < tos.length; i++) {\n      _transfer(msg.sender, tos[i], value);\n    }\n  }\n}","sourcePath":"contracts/CustomERC20.sol","abi":[{"constant":true,"inputs":[],"name":"name","outputs":[{"name":"","type":"string"}],"payable":false,"stateMutability":"view","type":"function"},{"constant":false,"inputs":[{"name":"spender","type":"address"},{"name":"value","type":"uint256"}],"name":"approve","outputs":[{"name":"","type":"bool"}],"payable":false,"stateMutability":"nonpayable","type":"function"},{"constant":false,"inputs":[{"name":"tos","type":"address[]"},{"name":"value","type":"uint256"}],"name":"transferMany","outputs":[],"payable":false,"stateMutability":"nonpayable","type":"function"},{"constant":false,"inputs":[{"name":"name","type":"string"},{"name":"symbol","type":"string"},{"name":"decimals","type":"uint8"}],"name":"initialize","outputs":[],"payable":false,"stateMutability":"nonpayable","type":"function"},{"constant":true,"inputs":[],"name":"totalSupply","outputs":[{"name":"","type":"uint256"}],"payable":false,"stateMutability":"view","type":"function"},{"constant":false,"inputs":[{"name":"from","type":"address"},{"name":"to","type":"address"},{"name":"value","type":"uint256"}],"name":"transferFrom","outputs":[{"name":"","type":"bool"}],"payable":false,"stateMutability":"nonpayable","type":"function"},{"constant":true,"inputs":[],"name":"decimals","outputs":[{"name":"","type":"uint8"}],"payable":false,"stateMutability":"view","type":"function"},{"constant":false,"inputs":[{"name":"spender","type":"address"},{"name":"addedValue","type":"uint256"}],"name":"increaseAllowance","outputs":[{"name":"","type":"bool"}],"payable":false,"stateMutability":"nonpayable","type":"function"},{"constant":true,"inputs":[{"name":"owner","type":"address"}],"name":"balanceOf","outputs":[{"name":"","type":"uint256"}],"payable":false,"stateMutability":"view","type":"function"},{"constant":true,"inputs":[],"name":"symbol","outputs":[{"name":"","type":"string"}],"payable":false,"stateMutability":"view","type":"function"},{"constant":false,"inputs":[{"name":"spender","type":"address"},{"name":"subtractedValue","type":"uint256"}],"name":"decreaseAllowance","outputs":[{"name":"","type":"bool"}],"payable":false,"stateMutability":"nonpayable","type":"function"},{"constant":false,"inputs":[{"name":"to","type":"address"},{"name":"value","type":"uint256"}],"name":"transfer","outputs":[{"name":"","type":"bool"}],"payable":false,"stateMutability":"nonpayable","type":"function"},{"constant":true,"inputs":[{"name":"owner","type":"address"},{"name":"spender","type":"address"}],"name":"allowance","outputs":[{"name":"","type":"uint256"}],"payable":false,"stateMutability":"view","type":"function"},{"constant":false,"inputs":[{"name":"name","type":"string"},{"name":"symbol","type":"string"},{"name":"decimals","type":"uint8"},{"name":"initialSupply","type":"uint256"},{"name":"initialHolder","type":"address"}],"name":"initialize","outputs":[],"payable":false,"stateMutability":"nonpayable","type":"function"},{"anonymous":false,"inputs":[{"indexed":true,"name":"from","type":"address"},{"indexed":true,"name":"to","type":"address"},{"indexed":false,"name":"value","type":"uint256"}],"name":"Transfer","type":"event"},{"anonymous":false,"inputs":[{"indexed":true,"name":"owner","type":"address"},{"indexed":true,"name":"spender","type":"address"},{"indexed":false,"name":"value","type":"uint256"}],"name":"Approval","type":"event"}],"bytecode":"0x60806040523480156100115760006000fd5b50610017565b611706806100266000396000f3fe60806040523480156100115760006000fd5b50600436106100ef5760003560e01c8063395093511161008d578063a457c2d711610067578063a457c2d714610625578063a9059cbb1461068c578063dd62ed3e146106f3578063f35718191461076c576100ef565b806339509351146104e157806370a082311461054857806395d89b41146105a1576100ef565b80631624f6c6116100c95780631624f6c6146102aa57806318160ddd1461041857806323b872dd14610436578063313ce567146104bd576100ef565b806306fdde03146100f5578063095ea7b3146101795780630a8e30d9146101e0576100ef565b60006000fd5b6100fd610904565b6040518080602001828103825283818151815260200191508051906020019080838360005b8381101561013e5780820151818401525b602081019050610122565b50505050905090810190601f16801561016b5780820380516001836020036101000a031916815260200191505b509250505060405180910390f35b6101c6600480360360408110156101905760006000fd5b81019080803573ffffffffffffffffffffffffffffffffffffffff169060200190929190803590602001909291905050506109ae565b604051808215151515815260200191505060405180910390f35b6102a8600480360360408110156101f75760006000fd5b81019080803590602001906401000000008111156102155760006000fd5b8201836020820111156102285760006000fd5b8035906020019184602083028401116401000000008311171561024b5760006000fd5b919080806020026020016040519081016040528093929190818152602001838360200280828437600081840152601f19601f82011690508083019250505050505050909091929090919290803590602001909291905050506109d0565b005b610416600480360360608110156102c15760006000fd5b81019080803590602001906401000000008111156102df5760006000fd5b8201836020820111156102f25760006000fd5b803590602001918460018302840111640100000000831117156103155760006000fd5b91908080601f016020809104026020016040519081016040528093929190818152602001838380828437600081840152601f19601f820116905080830192505050505050509090919290909192908035906020019064010000000081111561037d5760006000fd5b8201836020820111156103905760006000fd5b803590602001918460018302840111640100000000831117156103b35760006000fd5b91908080601f016020809104026020016040519081016040528093929190818152602001838380828437600081840152601f19601f82011690508083019250505050505050909091929090919290803560ff169060200190929190505050610a1a565b005b610420610b69565b6040518082815260200191505060405180910390f35b6104a36004803603606081101561044d5760006000fd5b81019080803573ffffffffffffffffffffffffffffffffffffffff169060200190929190803573ffffffffffffffffffffffffffffffffffffffff16906020019092919080359060200190929190505050610b7b565b604051808215151515815260200191505060405180910390f35b6104c5610c46565b604051808260ff1660ff16815260200191505060405180910390f35b61052e600480360360408110156104f85760006000fd5b81019080803573ffffffffffffffffffffffffffffffffffffffff16906020019092919080359060200190929190505050610c62565b604051808215151515815260200191505060405180910390f35b61058b6004803603602081101561055f5760006000fd5b81019080803573ffffffffffffffffffffffffffffffffffffffff169060200190929190505050610d1b565b6040518082815260200191505060405180910390f35b6105a9610d6f565b6040518080602001828103825283818151815260200191508051906020019080838360005b838110156105ea5780820151818401525b6020810190506105ce565b50505050905090810190601f1680156106175780820380516001836020036101000a031916815260200191505b509250505060405180910390f35b6106726004803603604081101561063c5760006000fd5b81019080803573ffffffffffffffffffffffffffffffffffffffff16906020019092919080359060200190929190505050610e19565b604051808215151515815260200191505060405180910390f35b6106d9600480360360408110156106a35760006000fd5b81019080803573ffffffffffffffffffffffffffffffffffffffff16906020019092919080359060200190929190505050610ed2565b604051808215151515815260200191505060405180910390f35b6107566004803603604081101561070a5760006000fd5b81019080803573ffffffffffffffffffffffffffffffffffffffff169060200190929190803573ffffffffffffffffffffffffffffffffffffffff169060200190929190505050610ef4565b6040518082815260200191505060405180910390f35b610902600480360360a08110156107835760006000fd5b81019080803590602001906401000000008111156107a15760006000fd5b8201836020820111156107b45760006000fd5b803590602001918460018302840111640100000000831117156107d75760006000fd5b91908080601f016020809104026020016040519081016040528093929190818152602001838380828437600081840152601f19601f820116905080830192505050505050509090919290909192908035906020019064010000000081111561083f5760006000fd5b8201836020820111156108525760006000fd5b803590602001918460018302840111640100000000831117156108755760006000fd5b91908080601f016020809104026020016040519081016040528093929190818152602001838380828437600081840152601f19601f82011690508083019250505050505050909091929090919290803560ff16906020019092919080359060200190929190803573ffffffffffffffffffffffffffffffffffffffff169060200190929190505050610f89565b005b606060686000508054600181600116156101000203166002900480601f01602080910402602001604051908101604052809291908181526020018280546001816001161561010002031660029004801561099f5780601f106109745761010080835404028352916020019161099f565b820191906000526020600020905b81548152906001019060200180831161098257829003601f168201915b505050505090506109ab565b90565b60006109c13384846110bc63ffffffff16565b600190506109ca565b92915050565b6000600090505b8251811015610a1457610a063384838151811015156109f257fe5b60200260200101518461122d63ffffffff16565b5b80806001019150506109d7565b505b5050565b600060019054906101000a900460ff1680610a3f5750610a3e61141b63ffffffff16565b5b80610a575750600060009054906101000a900460ff16155b1515610aae576040517f08c379a000000000000000000000000000000000000000000000000000000000815260040180806020018281038252602e8152602001806116a4602e913960400191505060405180910390fd5b6000600060019054906101000a900460ff1690506001600060016101000a81548160ff0219169083151502179055506001600060006101000a81548160ff0219169083151502179055508360686000509080519060200190610b119291906115f3565b508260696000509080519060200190610b2b9291906115f3565b5081606a60006101000a81548160ff021916908360ff1602179055505b80600060016101000a81548160ff021916908315150217905550505b505050565b60006035600050549050610b78565b90565b6000610b8e84848461122d63ffffffff16565b610c368433610c2b85603460005060008a73ffffffffffffffffffffffffffffffffffffffff1673ffffffffffffffffffffffffffffffffffffffff16815260200190815260200160002060005060003373ffffffffffffffffffffffffffffffffffffffff1673ffffffffffffffffffffffffffffffffffffffff1681526020019081526020016000206000505461143390919063ffffffff16565b6110bc63ffffffff16565b60019050610c3f565b9392505050565b6000606a60009054906101000a900460ff169050610c5f565b90565b6000610d0c3384610d0185603460005060003373ffffffffffffffffffffffffffffffffffffffff1673ffffffffffffffffffffffffffffffffffffffff16815260200190815260200160002060005060008973ffffffffffffffffffffffffffffffffffffffff1673ffffffffffffffffffffffffffffffffffffffff1681526020019081526020016000206000505461145c90919063ffffffff16565b6110bc63ffffffff16565b60019050610d15565b92915050565b6000603360005060008373ffffffffffffffffffffffffffffffffffffffff1673ffffffffffffffffffffffffffffffffffffffff168152602001908152602001600020600050549050610d6a565b919050565b606060696000508054600181600116156101000203166002900480601f016020809104026020016040519081016040528092919081815260200182805460018160011615610100020316600290048015610e0a5780601f10610ddf57610100808354040283529160200191610e0a565b820191906000526020600020905b815481529060010190602001808311610ded57829003601f168201915b50505050509050610e16565b90565b6000610ec33384610eb885603460005060003373ffffffffffffffffffffffffffffffffffffffff1673ffffffffffffffffffffffffffffffffffffffff16815260200190815260200160002060005060008973ffffffffffffffffffffffffffffffffffffffff1673ffffffffffffffffffffffffffffffffffffffff1681526020019081526020016000206000505461143390919063ffffffff16565b6110bc63ffffffff16565b60019050610ecc565b92915050565b6000610ee533848461122d63ffffffff16565b60019050610eee565b92915050565b6000603460005060008473ffffffffffffffffffffffffffffffffffffffff1673ffffffffffffffffffffffffffffffffffffffff16815260200190815260200160002060005060008373ffffffffffffffffffffffffffffffffffffffff1673ffffffffffffffffffffffffffffffffffffffff168152602001908152602001600020600050549050610f83565b92915050565b600060019054906101000a900460ff1680610fae5750610fad61141b63ffffffff16565b5b80610fc65750600060009054906101000a900460ff16155b151561101d576040517f08c379a000000000000000000000000000000000000000000000000000000000815260040180806020018281038252602e8152602001806116a4602e913960400191505060405180910390fd5b6000600060019054906101000a900460ff1690506001600060016101000a81548160ff0219169083151502179055506001600060006101000a81548160ff0219169083151502179055506000831115156110775760006000fd5b611088868686610a1a63ffffffff16565b611098828461148563ffffffff16565b5b80600060016101000a81548160ff021916908315150217905550505b5050505050565b600073ffffffffffffffffffffffffffffffffffffffff168273ffffffffffffffffffffffffffffffffffffffff16141515156110f95760006000fd5b600073ffffffffffffffffffffffffffffffffffffffff168373ffffffffffffffffffffffffffffffffffffffff16141515156111365760006000fd5b80603460005060008573ffffffffffffffffffffffffffffffffffffffff1673ffffffffffffffffffffffffffffffffffffffff16815260200190815260200160002060005060008473ffffffffffffffffffffffffffffffffffffffff1673ffffffffffffffffffffffffffffffffffffffff1681526020019081526020016000206000508190909055508173ffffffffffffffffffffffffffffffffffffffff168373ffffffffffffffffffffffffffffffffffffffff167f8c5be1e5ebec7d5bd14f71427d1e84f3dd0314c0f7b2291e5b200ac8c7c3b925836040518082815260200191505060405180910390a35b505050565b600073ffffffffffffffffffffffffffffffffffffffff168273ffffffffffffffffffffffffffffffffffffffff161415151561126a5760006000fd5b6112c281603360005060008673ffffffffffffffffffffffffffffffffffffffff1673ffffffffffffffffffffffffffffffffffffffff1681526020019081526020016000206000505461143390919063ffffffff16565b603360005060008573ffffffffffffffffffffffffffffffffffffffff1673ffffffffffffffffffffffffffffffffffffffff16815260200190815260200160002060005081909090555061136581603360005060008573ffffffffffffffffffffffffffffffffffffffff1673ffffffffffffffffffffffffffffffffffffffff1681526020019081526020016000206000505461145c90919063ffffffff16565b603360005060008473ffffffffffffffffffffffffffffffffffffffff1673ffffffffffffffffffffffffffffffffffffffff1681526020019081526020016000206000508190909055508173ffffffffffffffffffffffffffffffffffffffff168373ffffffffffffffffffffffffffffffffffffffff167fddf252ad1be2c89b69c2b068fc378daa952ba7f163c4a11628f55a4df523b3ef836040518082815260200191505060405180910390a35b505050565b60006000303b90506000811491505061143056505b90565b60008282111515156114455760006000fd5b600082840390508091505061145656505b92915050565b6000600082840190508381101515156114755760006000fd5b8091505061147f56505b92915050565b600073ffffffffffffffffffffffffffffffffffffffff168273ffffffffffffffffffffffffffffffffffffffff16141515156114c25760006000fd5b6114da8160356000505461145c90919063ffffffff16565b603560005081909090555061153d81603360005060008573ffffffffffffffffffffffffffffffffffffffff1673ffffffffffffffffffffffffffffffffffffffff1681526020019081526020016000206000505461145c90919063ffffffff16565b603360005060008473ffffffffffffffffffffffffffffffffffffffff1673ffffffffffffffffffffffffffffffffffffffff1681526020019081526020016000206000508190909055508173ffffffffffffffffffffffffffffffffffffffff16600073ffffffffffffffffffffffffffffffffffffffff167fddf252ad1be2c89b69c2b068fc378daa952ba7f163c4a11628f55a4df523b3ef836040518082815260200191505060405180910390a35b5050565b828054600181600116156101000203166002900490600052602060002090601f016020900481019282601f1061163457805160ff1916838001178555611667565b82800160010185558215611667579182015b828111156116665782518260005090905591602001919060010190611646565b5b5090506116749190611678565b5090565b6116a09190611682565b8082111561169c5760008181506000905550600101611682565b5090565b9056fe436f6e747261637420696e7374616e63652068617320616c7265616479206265656e20696e697469616c697a6564a265627a7a72305820eae953c5f349ee7bf1fce026e5be599934647c5a871e3e1e4fb8fa43f746355264736f6c634300050a0032","compiler":{"name":"solc","version":"0.5.10+commit.5a6ea5b1.Emscripten.clang","optimizer":{},"evmVersion":"constantinople"}}