{
  "fileName": "CustomERC1155.sol",
  "contractName": "CustomERC1155",
  "source": "pragma solidity  >=0.5.0;\n\nimport \"zos-lib/contracts/Initializable.sol\";\nimport  \"./erc-1155/contracts/ERC1155MixedFungibleMintable.sol\";\n\ncontract CustomERC1155 is Initializable {\n    \n    ERC1155MixedFungibleMintable public token;\n    bool private initialized;\n\n    function initialize(ERC1155MixedFungibleMintable _token) initializer public {\n        require(!initialized);\n        initialized = true;\n        token = _token;\n    }\n\n    function createToken( string memory _uri, bool _isNF) public returns (uint256 _type) {\n        return token.create(_uri, _isNF);\n    }\n}",
  "sourcePath": "contracts/CustomERC1155.sol",
  "abi": [
    {
      "constant": false,
      "inputs": [
        {
          "name": "_uri",
          "type": "string"
        },
        {
          "name": "_isNF",
          "type": "bool"
        }
      ],
      "name": "createToken",
      "outputs": [
        {
          "name": "_type",
          "type": "uint256"
        }
      ],
      "payable": false,
      "stateMutability": "nonpayable",
      "type": "function"
    },
    {
      "constant": false,
      "inputs": [
        {
          "name": "_token",
          "type": "address"
        }
      ],
      "name": "initialize",
      "outputs": [],
      "payable": false,
      "stateMutability": "nonpayable",
      "type": "function"
    },
    {
      "constant": true,
      "inputs": [],
      "name": "token",
      "outputs": [
        {
          "name": "",
          "type": "address"
        }
      ],
      "payable": false,
      "stateMutability": "view",
      "type": "function"
    }
  ],
  "bytecode": "0x60806040523480156100115760006000fd5b50610017565b61050a806100266000396000f3fe60806040523480156100115760006000fd5b50600436106100465760003560e01c80630951dddf1461004c578063c4d66de81461012f578063fc0c546a1461017457610046565b60006000fd5b610119600480360360408110156100635760006000fd5b81019080803590602001906401000000008111156100815760006000fd5b8201836020820111156100945760006000fd5b803590602001918460018302840111640100000000831117156100b75760006000fd5b91908080601f016020809104026020016040519081016040528093929190818152602001838380828437600081840152601f19601f820116905080830192505050505050509090919290909192908035151590602001909291905050506101be565b6040518082815260200191505060405180910390f35b610172600480360360208110156101465760006000fd5b81019080803573ffffffffffffffffffffffffffffffffffffffff1690602001909291905050506102f2565b005b61017c610469565b604051808273ffffffffffffffffffffffffffffffffffffffff1673ffffffffffffffffffffffffffffffffffffffff16815260200191505060405180910390f35b6000603360009054906101000a900473ffffffffffffffffffffffffffffffffffffffff1673ffffffffffffffffffffffffffffffffffffffff1663cc10e40184846040518363ffffffff1660e01b8152600401808060200183151515158152602001828103825284818151815260200191508051906020019080838360005b8381101561025a5780820151818401525b60208101905061023e565b50505050905090810190601f1680156102875780820380516001836020036101000a031916815260200191505b509350505050602060405180830381600087803b1580156102a85760006000fd5b505af11580156102bd573d600060003e3d6000fd5b505050506040513d60208110156102d45760006000fd5b810190808051906020019092919050505090506102ec565b92915050565b600060019054906101000a900460ff1680610317575061031661048f63ffffffff16565b5b8061032f5750600060009054906101000a900460ff16155b1515610386576040517f08c379a000000000000000000000000000000000000000000000000000000000815260040180806020018281038252602e8152602001806104a8602e913960400191505060405180910390fd5b6000600060019054906101000a900460ff1690506001600060016101000a81548160ff0219169083151502179055506001600060006101000a81548160ff021916908315150217905550603360149054906101000a900460ff161515156103ed5760006000fd5b6001603360146101000a81548160ff02191690831515021790555081603360006101000a81548173ffffffffffffffffffffffffffffffffffffffff021916908373ffffffffffffffffffffffffffffffffffffffff1602179055505b80600060016101000a81548160ff021916908315150217905550505b50565b603360009054906101000a900473ffffffffffffffffffffffffffffffffffffffff1681565b60006000303b9050600081149150506104a456505b9056fe436f6e747261637420696e7374616e63652068617320616c7265616479206265656e20696e697469616c697a6564a265627a7a72305820bb8aef21b4eec748e76b21b1112494166d2f973e36392fa530d3203f672f142664736f6c634300050a0032",
  "compiler": {
    "name": "solc",
    "version": "0.5.10+commit.5a6ea5b1.Emscripten.clang",
    "optimizer": {},
    "evmVersion": "constantinople"
  }
}