{"fileName":"ERC1155ReceiverDelegate.sol","contractName":"ERC1155ReceiverDelegate","source":"pragma solidity ^0.5.0;\n\nimport \"./DelegatesStorage.sol\";\nimport \"../../Common.sol\";\nimport \"../../IERC1155TokenReceiver.sol\";\n\n///////////////////////////////////////////////////////////////////////////////////////////////////\n/**\n * @title ERC1155ReceiverDelegate\n * @dev Contract to test safe transfer behavior via proxy and delegate.\n */\n///////////////////////////////////////////////////////////////////////////////////////////////////\n\ncontract ERC1155ReceiverDelegate is ProxyReceiverStorage_001_ERC1155MockReceiver, ERC1155TokenReceiver, CommonConstants {\n\n    function setShouldReject(bool _value) external {\n        require(address(this) == proxy, \"Direct call: setShouldReject\");\n\n        shouldReject = _value;\n    }\n\n    function onERC1155Received(address _operator, address _from, uint256 _id, uint256 _value, bytes calldata _data) external returns(bytes4) {\n        (_operator); (_from); (_id); (_value); (_data);  // solidity, be quiet please\n\n        require(address(this) == proxy, \"Direct call: onERC1155Received\");\n\n        if (shouldReject == true) {\n            revert(\"onERC1155Received: transfer not accepted\");\n        } else {\n            return ERC1155_ACCEPTED;\n        }\n    }\n\n    function onERC1155BatchReceived(address _operator, address _from, uint256[] calldata _ids, uint256[] calldata _values, bytes calldata _data) external returns(bytes4) {\n        (_operator); (_from); (_ids); (_values); (_data); // solidity, be quiet please\n\n        require(address(this) == proxy, \"Direct call: onERC1155BatchReceived\");\n\n        if (shouldReject == true) {\n            revert(\"onERC1155BatchReceived: transfer not accepted\");\n        } else {\n            return ERC1155_BATCH_ACCEPTED;\n        }\n    }\n\n    // ERC165 interface support\n    function supportsInterface(bytes4 interfaceID) external view returns (bool) {\n        return  interfaceID == 0x01ffc9a7 ||    // ERC165\n                interfaceID == 0x4e2312e0;      // ERC1155_ACCEPTED ^ ERC1155_BATCH_ACCEPTED;\n    }\n}\n","sourcePath":"contracts/erc-1155/contracts/ProxyReceiver/Delegates/ERC1155ReceiverDelegate.sol","abi":[{"constant":true,"inputs":[{"name":"interfaceID","type":"bytes4"}],"name":"supportsInterface","outputs":[{"name":"","type":"bool"}],"payable":false,"stateMutability":"view","type":"function"},{"constant":true,"inputs":[],"name":"shouldReject","outputs":[{"name":"","type":"bool"}],"payable":false,"stateMutability":"view","type":"function"},{"constant":true,"inputs":[{"name":"","type":"bytes4"}],"name":"delegates","outputs":[{"name":"","type":"address"}],"payable":false,"stateMutability":"view","type":"function"},{"constant":false,"inputs":[{"name":"_value","type":"bool"}],"name":"setShouldReject","outputs":[],"payable":false,"stateMutability":"nonpayable","type":"function"},{"constant":false,"inputs":[{"name":"_operator","type":"address"},{"name":"_from","type":"address"},{"name":"_ids","type":"uint256[]"},{"name":"_values","type":"uint256[]"},{"name":"_data","type":"bytes"}],"name":"onERC1155BatchReceived","outputs":[{"name":"","type":"bytes4"}],"payable":false,"stateMutability":"nonpayable","type":"function"},{"constant":false,"inputs":[{"name":"_operator","type":"address"},{"name":"_from","type":"address"},{"name":"_id","type":"uint256"},{"name":"_value","type":"uint256"},{"name":"_data","type":"bytes"}],"name":"onERC1155Received","outputs":[{"name":"","type":"bytes4"}],"payable":false,"stateMutability":"nonpayable","type":"function"}],"bytecode":"0x60806040523480156100115760006000fd5b50610017565b61098b806100266000396000f3fe60806040523480156100115760006000fd5b50600436106100675760003560e01c806301ffc9a71461006d5780631dbb9381146100d3578063a0a2daf0146100f5578063a175b63814610183578063bc197c81146101b4578063f23a6e611461037957610067565b60006000fd5b6100b9600480360360208110156100845760006000fd5b8101908080357bffffffffffffffffffffffffffffffffffffffffffffffffffffffff1916906020019092919050505061049e565b604051808215151515815260200191505060405180910390f35b6100db610505565b604051808215151515815260200191505060405180910390f35b6101416004803603602081101561010c5760006000fd5b8101908080357bffffffffffffffffffffffffffffffffffffffffffffffffffffffff19169060200190929190505050610518565b604051808273ffffffffffffffffffffffffffffffffffffffff1673ffffffffffffffffffffffffffffffffffffffff16815260200191505060405180910390f35b6101b26004803603602081101561019a5760006000fd5b81019080803515159060200190929190505050610550565b005b610325600480360360a08110156101cb5760006000fd5b81019080803573ffffffffffffffffffffffffffffffffffffffff169060200190929190803573ffffffffffffffffffffffffffffffffffffffff169060200190929190803590602001906401000000008111156102295760006000fd5b82018360208201111561023c5760006000fd5b8035906020019184602083028401116401000000008311171561025f5760006000fd5b90919293909091929390803590602001906401000000008111156102835760006000fd5b8201836020820111156102965760006000fd5b803590602001918460208302840111640100000000831117156102b95760006000fd5b90919293909091929390803590602001906401000000008111156102dd5760006000fd5b8201836020820111156102f05760006000fd5b803590602001918460018302840111640100000000831117156103135760006000fd5b90919293909091929390505050610636565b60405180827bffffffffffffffffffffffffffffffffffffffffffffffffffffffff19167bffffffffffffffffffffffffffffffffffffffffffffffffffffffff1916815260200191505060405180910390f35b61044a600480360360a08110156103905760006000fd5b81019080803573ffffffffffffffffffffffffffffffffffffffff169060200190929190803573ffffffffffffffffffffffffffffffffffffffff1690602001909291908035906020019092919080359060200190929190803590602001906401000000008111156104025760006000fd5b8201836020820111156104155760006000fd5b803590602001918460018302840111640100000000831117156104385760006000fd5b9091929390909192939050505061077d565b60405180827bffffffffffffffffffffffffffffffffffffffffffffffffffffffff19167bffffffffffffffffffffffffffffffffffffffffffffffffffffffff1916815260200191505060405180910390f35b60006301ffc9a760e01b827bffffffffffffffffffffffffffffffffffffffffffffffffffffffff191614806104f95750634e2312e060e01b827bffffffffffffffffffffffffffffffffffffffffffffffffffffffff1916145b9050610500565b919050565b600360149054906101000a900460ff1681565b600060005060205280600052604060002060009150909054906101000a900473ffffffffffffffffffffffffffffffffffffffff1681565b600360009054906101000a900473ffffffffffffffffffffffffffffffffffffffff1673ffffffffffffffffffffffffffffffffffffffff163073ffffffffffffffffffffffffffffffffffffffff16141515610618576040517f08c379a000000000000000000000000000000000000000000000000000000000815260040180806020018281038252601c8152602001807f4469726563742063616c6c3a2073657453686f756c6452656a6563740000000081526020015060200191505060405180910390fd5b80600360146101000a81548160ff0219169083151502179055505b50565b600088508750868650508484505082825050600360009054906101000a900473ffffffffffffffffffffffffffffffffffffffff1673ffffffffffffffffffffffffffffffffffffffff163073ffffffffffffffffffffffffffffffffffffffff161415156106f0576040517f08c379a00000000000000000000000000000000000000000000000000000000081526004018080602001828103825260238152602001806109346023913960400191505060405180910390fd5b60011515600360149054906101000a900460ff1615151415610761576040517f08c379a000000000000000000000000000000000000000000000000000000000815260040180806020018281038252602d8152602001806108df602d913960400191505060405180910390fd610770565b63bc197c8160e01b9050610771565b5b98975050505050505050565b6000865085508450835082825050600360009054906101000a900473ffffffffffffffffffffffffffffffffffffffff1673ffffffffffffffffffffffffffffffffffffffff163073ffffffffffffffffffffffffffffffffffffffff16141515610853576040517f08c379a000000000000000000000000000000000000000000000000000000000815260040180806020018281038252601e8152602001807f4469726563742063616c6c3a206f6e455243313135355265636569766564000081526020015060200191505060405180910390fd5b60011515600360149054906101000a900460ff16151514156108c4576040517f08c379a000000000000000000000000000000000000000000000000000000000815260040180806020018281038252602881526020018061090c6028913960400191505060405180910390fd6108d3565b63f23a6e6160e01b90506108d4565b5b969550505050505056fe6f6e45524331313535426174636852656365697665643a207472616e73666572206e6f742061636365707465646f6e4552433131353552656365697665643a207472616e73666572206e6f742061636365707465644469726563742063616c6c3a206f6e4552433131353542617463685265636569766564a265627a7a72305820c55ac2936c6214d00cbdfef8374418fd8996254fba24642501f73a8d2926cba664736f6c634300050a0032","compiler":{"name":"solc","version":"0.5.10+commit.5a6ea5b1.Emscripten.clang","optimizer":{},"evmVersion":"constantinople"}}