{"fileName":"ERC1155MixedFungible.sol","contractName":"ERC1155MixedFungible","source":"pragma solidity ^0.5.0;\n\nimport \"./ERC1155.sol\";\n\n/**\n    @dev Extension to ERC1155 for Mixed Fungible and Non-Fungible Items support\n    The main benefit is sharing of common type information, just like you do when\n    creating a fungible id.\n*/\ncontract ERC1155MixedFungible is ERC1155 {\n\n    // Use a split bit implementation.\n    // Store the type in the upper 128 bits..\n    uint256 constant TYPE_MASK = uint256(uint128(~0)) << 128;\n\n    // ..and the non-fungible index in the lower 128\n    uint256 constant NF_INDEX_MASK = uint128(~0);\n\n    // The top bit is a flag to tell if this is a NFI.\n    uint256 constant TYPE_NF_BIT = 1 << 255;\n\n    mapping (uint256 => address) nfOwners;\n\n    // Only to make code clearer. Should not be functions\n    function isNonFungible(uint256 _id) public pure returns(bool) {\n        return _id & TYPE_NF_BIT == TYPE_NF_BIT;\n    }\n    function isFungible(uint256 _id) public pure returns(bool) {\n        return _id & TYPE_NF_BIT == 0;\n    }\n    function getNonFungibleIndex(uint256 _id) public pure returns(uint256) {\n        return _id & NF_INDEX_MASK;\n    }\n    function getNonFungibleBaseType(uint256 _id) public pure returns(uint256) {\n        return _id & TYPE_MASK;\n    }\n    function isNonFungibleBaseType(uint256 _id) public pure returns(bool) {\n        // A base type has the NF bit but does not have an index.\n        return (_id & TYPE_NF_BIT == TYPE_NF_BIT) && (_id & NF_INDEX_MASK == 0);\n    }\n    function isNonFungibleItem(uint256 _id) public pure returns(bool) {\n        // A base type has the NF bit but does has an index.\n        return (_id & TYPE_NF_BIT == TYPE_NF_BIT) && (_id & NF_INDEX_MASK != 0);\n    }\n    function ownerOf(uint256 _id) public view returns (address) {\n        return nfOwners[_id];\n    }\n\n    // override\n    function safeTransferFrom(address _from, address _to, uint256 _id, uint256 _value, bytes calldata _data) external {\n\n        require(_to != address(0x0), \"cannot send to zero address\");\n        require(_from == msg.sender || operatorApproval[_from][msg.sender] == true, \"Need operator approval for 3rd party transfers.\");\n\n        if (isNonFungible(_id)) {\n            require(nfOwners[_id] == _from);\n            nfOwners[_id] = _to;\n            // You could keep balance of NF type in base type id like so:\n            // uint256 baseType = getNonFungibleBaseType(_id);\n            // balances[baseType][_from] = balances[baseType][_from].sub(_value);\n            // balances[baseType][_to]   = balances[baseType][_to].add(_value);\n        } else {\n            balances[_id][_from] = balances[_id][_from].sub(_value);\n            balances[_id][_to]   = balances[_id][_to].add(_value);\n        }\n\n        emit TransferSingle(msg.sender, _from, _to, _id, _value);\n\n        if (_to.isContract()) {\n            _doSafeTransferAcceptanceCheck(msg.sender, _from, _to, _id, _value, _data);\n        }\n    }\n\n    // override\n    function safeBatchTransferFrom(address _from, address _to, uint256[] calldata _ids, uint256[] calldata _values, bytes calldata _data) external {\n\n        require(_to != address(0x0), \"cannot send to zero address\");\n        require(_ids.length == _values.length, \"Array length must match\");\n\n        // Only supporting a global operator approval allows us to do only 1 check and not to touch storage to handle allowances.\n        require(_from == msg.sender || operatorApproval[_from][msg.sender] == true, \"Need operator approval for 3rd party transfers.\");\n\n        for (uint256 i = 0; i < _ids.length; ++i) {\n            // Cache value to local variable to reduce read costs.\n            uint256 id = _ids[i];\n            uint256 value = _values[i];\n\n            if (isNonFungible(id)) {\n                require(nfOwners[id] == _from);\n                nfOwners[id] = _to;\n            } else {\n                balances[id][_from] = balances[id][_from].sub(value);\n                balances[id][_to]   = value.add(balances[id][_to]);\n            }\n        }\n\n        emit TransferBatch(msg.sender, _from, _to, _ids, _values);\n\n        if (_to.isContract()) {\n            _doSafeBatchTransferAcceptanceCheck(msg.sender, _from, _to, _ids, _values, _data);\n        }\n    }\n\n    function balanceOf(address _owner, uint256 _id) external view returns (uint256) {\n        if (isNonFungibleItem(_id))\n            return nfOwners[_id] == _owner ? 1 : 0;\n        return balances[_id][_owner];\n    }\n\n    function balanceOfBatch(address[] calldata _owners, uint256[] calldata _ids) external view returns (uint256[] memory) {\n\n        require(_owners.length == _ids.length);\n\n        uint256[] memory balances_ = new uint256[](_owners.length);\n\n        for (uint256 i = 0; i < _owners.length; ++i) {\n            uint256 id = _ids[i];\n            if (isNonFungibleItem(id)) {\n                balances_[i] = nfOwners[id] == _owners[i] ? 1 : 0;\n            } else {\n            \tbalances_[i] = balances[id][_owners[i]];\n            }\n        }\n\n        return balances_;\n    }\n}\n","sourcePath":"contracts/erc-1155/contracts/ERC1155MixedFungible.sol","abi":[{"constant":true,"inputs":[{"name":"_owner","type":"address"},{"name":"_id","type":"uint256"}],"name":"balanceOf","outputs":[{"name":"","type":"uint256"}],"payable":false,"stateMutability":"view","type":"function"},{"constant":true,"inputs":[{"name":"_interfaceId","type":"bytes4"}],"name":"supportsInterface","outputs":[{"name":"","type":"bool"}],"payable":false,"stateMutability":"view","type":"function"},{"constant":false,"inputs":[{"name":"_from","type":"address"},{"name":"_to","type":"address"},{"name":"_ids","type":"uint256[]"},{"name":"_values","type":"uint256[]"},{"name":"_data","type":"bytes"}],"name":"safeBatchTransferFrom","outputs":[],"payable":false,"stateMutability":"nonpayable","type":"function"},{"constant":true,"inputs":[{"name":"_owners","type":"address[]"},{"name":"_ids","type":"uint256[]"}],"name":"balanceOfBatch","outputs":[{"name":"","type":"uint256[]"}],"payable":false,"stateMutability":"view","type":"function"},{"constant":true,"inputs":[{"name":"_id","type":"uint256"}],"name":"isNonFungibleItem","outputs":[{"name":"","type":"bool"}],"payable":false,"stateMutability":"pure","type":"function"},{"constant":true,"inputs":[{"name":"_id","type":"uint256"}],"name":"ownerOf","outputs":[{"name":"","type":"address"}],"payable":false,"stateMutability":"view","type":"function"},{"constant":true,"inputs":[{"name":"_id","type":"uint256"}],"name":"getNonFungibleBaseType","outputs":[{"name":"","type":"uint256"}],"payable":false,"stateMutability":"pure","type":"function"},{"constant":true,"inputs":[{"name":"_id","type":"uint256"}],"name":"isNonFungibleBaseType","outputs":[{"name":"","type":"bool"}],"payable":false,"stateMutability":"pure","type":"function"},{"constant":true,"inputs":[{"name":"_id","type":"uint256"}],"name":"getNonFungibleIndex","outputs":[{"name":"","type":"uint256"}],"payable":false,"stateMutability":"pure","type":"function"},{"constant":false,"inputs":[{"name":"_operator","type":"address"},{"name":"_approved","type":"bool"}],"name":"setApprovalForAll","outputs":[],"payable":false,"stateMutability":"nonpayable","type":"function"},{"constant":true,"inputs":[{"name":"_id","type":"uint256"}],"name":"isFungible","outputs":[{"name":"","type":"bool"}],"payable":false,"stateMutability":"pure","type":"function"},{"constant":true,"inputs":[{"name":"_id","type":"uint256"}],"name":"isNonFungible","outputs":[{"name":"","type":"bool"}],"payable":false,"stateMutability":"pure","type":"function"},{"constant":true,"inputs":[{"name":"_owner","type":"address"},{"name":"_operator","type":"address"}],"name":"isApprovedForAll","outputs":[{"name":"","type":"bool"}],"payable":false,"stateMutability":"view","type":"function"},{"constant":false,"inputs":[{"name":"_from","type":"address"},{"name":"_to","type":"address"},{"name":"_id","type":"uint256"},{"name":"_value","type":"uint256"},{"name":"_data","type":"bytes"}],"name":"safeTransferFrom","outputs":[],"payable":false,"stateMutability":"nonpayable","type":"function"},{"anonymous":false,"inputs":[{"indexed":true,"name":"_operator","type":"address"},{"indexed":true,"name":"_from","type":"address"},{"indexed":true,"name":"_to","type":"address"},{"indexed":false,"name":"_id","type":"uint256"},{"indexed":false,"name":"_value","type":"uint256"}],"name":"TransferSingle","type":"event"},{"anonymous":false,"inputs":[{"indexed":true,"name":"_operator","type":"address"},{"indexed":true,"name":"_from","type":"address"},{"indexed":true,"name":"_to","type":"address"},{"indexed":false,"name":"_ids","type":"uint256[]"},{"indexed":false,"name":"_values","type":"uint256[]"}],"name":"TransferBatch","type":"event"},{"anonymous":false,"inputs":[{"indexed":true,"name":"_owner","type":"address"},{"indexed":true,"name":"_operator","type":"address"},{"indexed":false,"name":"_approved","type":"bool"}],"name":"ApprovalForAll","type":"event"},{"anonymous":false,"inputs":[{"indexed":false,"name":"_value","type":"string"},{"indexed":true,"name":"_id","type":"uint256"}],"name":"URI","type":"event"}],"bytecode":"0x60806040523480156100115760006000fd5b50610017565b612240806100266000396000f3fe60806040523480156100115760006000fd5b50600436106100ee5760003560e01c80637269a3271161008d578063adebf6f211610067578063adebf6f214610633578063e44591f01461067a578063e985e9c5146106c1578063f242432a1461073e576100ee565b80637269a327146105585780639cca1c641461059f578063a22cb465146105e2576100ee565b80634e1273f4116100c95780634e1273f4146103305780635e81b9581461045f5780636352211e146104a65780636f969c2d14610515576100ee565b8062fdd58e146100f457806301ffc9a7146101575780632eb2c2d6146101bd576100ee565b60006000fd5b6101416004803603604081101561010b5760006000fd5b81019080803573ffffffffffffffffffffffffffffffffffffffff16906020019092919080359060200190929190505050610811565b6040518082815260200191505060405180910390f35b6101a36004803603602081101561016e5760006000fd5b8101908080357bffffffffffffffffffffffffffffffffffffffffffffffffffffffff1916906020019092919050505061090b565b604051808215151515815260200191505060405180910390f35b61032e600480360360a08110156101d45760006000fd5b81019080803573ffffffffffffffffffffffffffffffffffffffff169060200190929190803573ffffffffffffffffffffffffffffffffffffffff169060200190929190803590602001906401000000008111156102325760006000fd5b8201836020820111156102455760006000fd5b803590602001918460208302840111640100000000831117156102685760006000fd5b909192939090919293908035906020019064010000000081111561028c5760006000fd5b82018360208201111561029f5760006000fd5b803590602001918460208302840111640100000000831117156102c25760006000fd5b90919293909091929390803590602001906401000000008111156102e65760006000fd5b8201836020820111156102f95760006000fd5b8035906020019184600183028401116401000000008311171561031c5760006000fd5b909192939090919293905050506109c0565b005b610407600480360360408110156103475760006000fd5b81019080803590602001906401000000008111156103655760006000fd5b8201836020820111156103785760006000fd5b8035906020019184602083028401116401000000008311171561039b5760006000fd5b90919293909091929390803590602001906401000000008111156103bf5760006000fd5b8201836020820111156103d25760006000fd5b803590602001918460208302840111640100000000831117156103f55760006000fd5b909192939090919293905050506110cb565b6040518080602001828103825283818151815260200191508051906020019060200280838360005b8381101561044b5780820151818401525b60208101905061042f565b505050509050019250505060405180910390f35b61048c600480360360208110156104765760006000fd5b81019080803590602001909291905050506112e2565b604051808215151515815260200191505060405180910390f35b6104d3600480360360208110156104bd5760006000fd5b8101908080359060200190929190505050611376565b604051808273ffffffffffffffffffffffffffffffffffffffff1673ffffffffffffffffffffffffffffffffffffffff16815260200191505060405180910390f35b6105426004803603602081101561052c5760006000fd5b81019080803590602001909291905050506113bb565b6040518082815260200191505060405180910390f35b6105856004803603602081101561056f5760006000fd5b8101908080359060200190929190505050611402565b604051808215151515815260200191505060405180910390f35b6105cc600480360360208110156105b65760006000fd5b8101908080359060200190929190505050611495565b6040518082815260200191505060405180910390f35b610631600480360360408110156105f95760006000fd5b81019080803573ffffffffffffffffffffffffffffffffffffffff1690602001909291908035151590602001909291905050506114d8565b005b6106606004803603602081101561064a5760006000fd5b81019080803590602001909291905050506115e0565b604051808215151515815260200191505060405180910390f35b6106a7600480360360208110156106915760006000fd5b8101908080359060200190929190505050611614565b604051808215151515815260200191505060405180910390f35b610724600480360360408110156106d85760006000fd5b81019080803573ffffffffffffffffffffffffffffffffffffffff169060200190929190803573ffffffffffffffffffffffffffffffffffffffff169060200190929190505050611667565b604051808215151515815260200191505060405180910390f35b61080f600480360360a08110156107555760006000fd5b81019080803573ffffffffffffffffffffffffffffffffffffffff169060200190929190803573ffffffffffffffffffffffffffffffffffffffff1690602001909291908035906020019092919080359060200190929190803590602001906401000000008111156107c75760006000fd5b8201836020820111156107da5760006000fd5b803590602001918460018302840111640100000000831117156107fd5760006000fd5b90919293909091929390505050611706565b005b6000610822826112e263ffffffff16565b156108a4578273ffffffffffffffffffffffffffffffffffffffff166002600050600084815260200190815260200160002060009054906101000a900473ffffffffffffffffffffffffffffffffffffffff1673ffffffffffffffffffffffffffffffffffffffff161461089757600061089a565b60015b60ff169050610905565b6000600050600083815260200190815260200160002060005060008473ffffffffffffffffffffffffffffffffffffffff1673ffffffffffffffffffffffffffffffffffffffff168152602001908152602001600020600050549050610905565b92915050565b60006301ffc9a760e01b7bffffffffffffffffffffffffffffffffffffffffffffffffffffffff1916827bffffffffffffffffffffffffffffffffffffffffffffffffffffffff191614806109a4575063d9b67a2660e01b7bffffffffffffffffffffffffffffffffffffffffffffffffffffffff1916827bffffffffffffffffffffffffffffffffffffffffffffffffffffffff1916145b156109b257600190506109bb565b600090506109bb565b919050565b600073ffffffffffffffffffffffffffffffffffffffff168773ffffffffffffffffffffffffffffffffffffffff1614151515610a68576040517f08c379a000000000000000000000000000000000000000000000000000000000815260040180806020018281038252601b8152602001807f63616e6e6f742073656e6420746f207a65726f2061646472657373000000000081526020015060200191505060405180910390fd5b8383905086869050141515610ae8576040517f08c379a00000000000000000000000000000000000000000000000000000000081526004018080602001828103825260178152602001807f4172726179206c656e677468206d757374206d6174636800000000000000000081526020015060200191505060405180910390fd5b3373ffffffffffffffffffffffffffffffffffffffff168873ffffffffffffffffffffffffffffffffffffffff161480610bb5575060011515600160005060008a73ffffffffffffffffffffffffffffffffffffffff1673ffffffffffffffffffffffffffffffffffffffff16815260200190815260200160002060005060003373ffffffffffffffffffffffffffffffffffffffff1673ffffffffffffffffffffffffffffffffffffffff16815260200190815260200160002060009054906101000a900460ff161515145b1515610c0c576040517f08c379a000000000000000000000000000000000000000000000000000000000815260040180806020018281038252602f815260200180612166602f913960400191505060405180910390fd5b6000600090505b86869050811015610ed65760008787838181101515610c2e57fe5b90506020020135905060008686848181101515610c4757fe5b905060200201359050610c5f8261161463ffffffff16565b15610d2f578a73ffffffffffffffffffffffffffffffffffffffff166002600050600084815260200190815260200160002060009054906101000a900473ffffffffffffffffffffffffffffffffffffffff1673ffffffffffffffffffffffffffffffffffffffff16141515610cd55760006000fd5b896002600050600084815260200190815260200160002060006101000a81548173ffffffffffffffffffffffffffffffffffffffff021916908373ffffffffffffffffffffffffffffffffffffffff160217905550610ec6565b610d9b816000600050600085815260200190815260200160002060005060008e73ffffffffffffffffffffffffffffffffffffffff1673ffffffffffffffffffffffffffffffffffffffff16815260200190815260200160002060005054611c5a90919063ffffffff16565b6000600050600084815260200190815260200160002060005060008d73ffffffffffffffffffffffffffffffffffffffff1673ffffffffffffffffffffffffffffffffffffffff168152602001908152602001600020600050819090905550610e666000600050600084815260200190815260200160002060005060008c73ffffffffffffffffffffffffffffffffffffffff1673ffffffffffffffffffffffffffffffffffffffff1681526020019081526020016000206000505482611c7890919063ffffffff16565b6000600050600084815260200190815260200160002060005060008c73ffffffffffffffffffffffffffffffffffffffff1673ffffffffffffffffffffffffffffffffffffffff1681526020019081526020016000206000508190909055505b50505b8060010190508050610c13565b508673ffffffffffffffffffffffffffffffffffffffff168873ffffffffffffffffffffffffffffffffffffffff163373ffffffffffffffffffffffffffffffffffffffff167f4a39dc06d4c0dbc64b70af90fd698a233a518aa5d07e595d983b8c0526c8f7fb898989896040518080602001806020018381038352878782818152602001925060200280828437600081840152601f19601f8201169050808301925050508381038252858582818152602001925060200280828437600081840152601f19601f820116905080830192505050965050505050505060405180910390a4610fe08773ffffffffffffffffffffffffffffffffffffffff16611c9b909063ffffffff16565b156110c0576110bf338989898980806020026020016040519081016040528093929190818152602001838360200280828437600081840152601f19601f82011690508083019250505050505050888880806020026020016040519081016040528093929190818152602001838360200280828437600081840152601f19601f8201169050808301925050505050505087878080601f016020809104026020016040519081016040528093929190818152602001838380828437600081840152601f19601f82011690508083019250505050505050611cb563ffffffff16565b5b5b5050505050505050565b606082829050858590501415156110e25760006000fd5b6060858590506040519080825280602002602001820160405280156111165781602001602082028038833980820191505090505b5090506000600090505b868690508110156112cf576000858583818110151561113b57fe5b905060200201359050611153816112e263ffffffff16565b1561121c57878783818110151561116657fe5b9050602002013573ffffffffffffffffffffffffffffffffffffffff1673ffffffffffffffffffffffffffffffffffffffff166002600050600083815260200190815260200160002060009054906101000a900473ffffffffffffffffffffffffffffffffffffffff1673ffffffffffffffffffffffffffffffffffffffff16146111f25760006111f5565b60015b60ff16838381518110151561120657fe5b60200260200101909081815260200150506112c0565b600060005060008281526020019081526020016000206000506000898985818110151561124557fe5b9050602002013573ffffffffffffffffffffffffffffffffffffffff1673ffffffffffffffffffffffffffffffffffffffff1673ffffffffffffffffffffffffffffffffffffffff1681526020019081526020016000206000505483838151811015156112ae57fe5b60200260200101909081815260200150505b505b8060010190508050611120565b50809150506112da56505b949350505050565b60007f80000000000000000000000000000000000000000000000000000000000000007f8000000000000000000000000000000000000000000000000000000000000000831614801561136a575060007fffffffffffffffffffffffffffffffffffffffffffffffffffffffffffffffff6fffffffffffffffffffffffffffffffff16831614155b9050611371565b919050565b60006002600050600083815260200190815260200160002060009054906101000a900473ffffffffffffffffffffffffffffffffffffffff1690506113b6565b919050565b600060807fffffffffffffffffffffffffffffffffffffffffffffffffffffffffffffffff6fffffffffffffffffffffffffffffffff16901b821690506113fd565b919050565b60007f80000000000000000000000000000000000000000000000000000000000000007f80000000000000000000000000000000000000000000000000000000000000008316148015611489575060007fffffffffffffffffffffffffffffffffffffffffffffffffffffffffffffffff6fffffffffffffffffffffffffffffffff168316145b9050611490565b919050565b60007fffffffffffffffffffffffffffffffffffffffffffffffffffffffffffffffff6fffffffffffffffffffffffffffffffff16821690506114d3565b919050565b80600160005060003373ffffffffffffffffffffffffffffffffffffffff1673ffffffffffffffffffffffffffffffffffffffff16815260200190815260200160002060005060008473ffffffffffffffffffffffffffffffffffffffff1673ffffffffffffffffffffffffffffffffffffffff16815260200190815260200160002060006101000a81548160ff0219169083151502179055508173ffffffffffffffffffffffffffffffffffffffff163373ffffffffffffffffffffffffffffffffffffffff167f17307eab39ab6107e8899845ad3d59bd9653f200f220920489ca2b5937696c3183604051808215151515815260200191505060405180910390a35b5050565b600060007f8000000000000000000000000000000000000000000000000000000000000000831614905061160f565b919050565b60007f80000000000000000000000000000000000000000000000000000000000000007f80000000000000000000000000000000000000000000000000000000000000008316149050611662565b919050565b6000600160005060008473ffffffffffffffffffffffffffffffffffffffff1673ffffffffffffffffffffffffffffffffffffffff16815260200190815260200160002060005060008373ffffffffffffffffffffffffffffffffffffffff1673ffffffffffffffffffffffffffffffffffffffff16815260200190815260200160002060009054906101000a900460ff169050611700565b92915050565b600073ffffffffffffffffffffffffffffffffffffffff168573ffffffffffffffffffffffffffffffffffffffff16141515156117ae576040517f08c379a000000000000000000000000000000000000000000000000000000000815260040180806020018281038252601b8152602001807f63616e6e6f742073656e6420746f207a65726f2061646472657373000000000081526020015060200191505060405180910390fd5b3373ffffffffffffffffffffffffffffffffffffffff168673ffffffffffffffffffffffffffffffffffffffff16148061187b575060011515600160005060008873ffffffffffffffffffffffffffffffffffffffff1673ffffffffffffffffffffffffffffffffffffffff16815260200190815260200160002060005060003373ffffffffffffffffffffffffffffffffffffffff1673ffffffffffffffffffffffffffffffffffffffff16815260200190815260200160002060009054906101000a900460ff161515145b15156118d2576040517f08c379a000000000000000000000000000000000000000000000000000000000815260040180806020018281038252602f815260200180612166602f913960400191505060405180910390fd5b6118e18461161463ffffffff16565b156119b1578573ffffffffffffffffffffffffffffffffffffffff166002600050600086815260200190815260200160002060009054906101000a900473ffffffffffffffffffffffffffffffffffffffff1673ffffffffffffffffffffffffffffffffffffffff161415156119575760006000fd5b846002600050600086815260200190815260200160002060006101000a81548173ffffffffffffffffffffffffffffffffffffffff021916908373ffffffffffffffffffffffffffffffffffffffff160217905550611b48565b611a1d836000600050600087815260200190815260200160002060005060008973ffffffffffffffffffffffffffffffffffffffff1673ffffffffffffffffffffffffffffffffffffffff16815260200190815260200160002060005054611c5a90919063ffffffff16565b6000600050600086815260200190815260200160002060005060008873ffffffffffffffffffffffffffffffffffffffff1673ffffffffffffffffffffffffffffffffffffffff168152602001908152602001600020600050819090905550611ae8836000600050600087815260200190815260200160002060005060008873ffffffffffffffffffffffffffffffffffffffff1673ffffffffffffffffffffffffffffffffffffffff16815260200190815260200160002060005054611c7890919063ffffffff16565b6000600050600086815260200190815260200160002060005060008773ffffffffffffffffffffffffffffffffffffffff1673ffffffffffffffffffffffffffffffffffffffff1681526020019081526020016000206000508190909055505b8473ffffffffffffffffffffffffffffffffffffffff168673ffffffffffffffffffffffffffffffffffffffff163373ffffffffffffffffffffffffffffffffffffffff167fc3d58168c5ae7397731d063d5bbf3d657854427343f4c083240f7aacaa2d0f628787604051808381526020018281526020019250505060405180910390a4611bf38573ffffffffffffffffffffffffffffffffffffffff16611c9b909063ffffffff16565b15611c5157611c50338787878787878080601f016020809104026020016040519081016040528093929190818152602001838380828437600081840152601f19601f82011690508083019250505050505050611f4f63ffffffff16565b5b5b505050505050565b6000828211151515611c6857fe5b8183039050611c72565b92915050565b600081830190508050828110151515611c8d57fe5b809050611c95565b92915050565b60006000823b905060008111915050611cb056505b919050565b63bc197c8160e01b7bffffffffffffffffffffffffffffffffffffffffffffffffffffffff19168473ffffffffffffffffffffffffffffffffffffffff1663bc197c8188888787876040518663ffffffff1660e01b8152600401808673ffffffffffffffffffffffffffffffffffffffff1673ffffffffffffffffffffffffffffffffffffffff1681526020018573ffffffffffffffffffffffffffffffffffffffff1673ffffffffffffffffffffffffffffffffffffffff168152602001806020018060200180602001848103845287818151815260200191508051906020019060200280838360005b83811015611dbc5780820151818401525b602081019050611da0565b50505050905001848103835286818151815260200191508051906020019060200280838360005b83811015611dff5780820151818401525b602081019050611de3565b50505050905001848103825285818151815260200191508051906020019080838360005b83811015611e3f5780820151818401525b602081019050611e23565b50505050905090810190601f168015611e6c5780820380516001836020036101000a031916815260200191505b5098505050505050505050602060405180830381600087803b158015611e925760006000fd5b505af1158015611ea7573d600060003e3d6000fd5b505050506040513d6020811015611ebe5760006000fd5b81019080805190602001909291905050507bffffffffffffffffffffffffffffffffffffffffffffffffffffffff1916141515611f46576040517f08c379a000000000000000000000000000000000000000000000000000000000815260040180806020018281038252603e815260200180612195603e913960400191505060405180910390fd5b5b505050505050565b63f23a6e6160e01b7bffffffffffffffffffffffffffffffffffffffffffffffffffffffff19168473ffffffffffffffffffffffffffffffffffffffff1663f23a6e6188888787876040518663ffffffff1660e01b8152600401808673ffffffffffffffffffffffffffffffffffffffff1673ffffffffffffffffffffffffffffffffffffffff1681526020018573ffffffffffffffffffffffffffffffffffffffff1673ffffffffffffffffffffffffffffffffffffffff16815260200184815260200183815260200180602001828103825283818151815260200191508051906020019080838360005b838110156120575780820151818401525b60208101905061203b565b50505050905090810190601f1680156120845780820380516001836020036101000a031916815260200191505b509650505050505050602060405180830381600087803b1580156120a85760006000fd5b505af11580156120bd573d600060003e3d6000fd5b505050506040513d60208110156120d45760006000fd5b81019080805190602001909291905050507bffffffffffffffffffffffffffffffffffffffffffffffffffffffff191614151561215c576040517f08c379a00000000000000000000000000000000000000000000000000000000081526004018080602001828103825260398152602001806121d36039913960400191505060405180910390fd5b5b50505050505056fe4e656564206f70657261746f7220617070726f76616c20666f7220337264207061727479207472616e73666572732e636f6e74726163742072657475726e656420616e20756e6b6e6f776e2076616c75652066726f6d206f6e4552433131353542617463685265636569766564636f6e74726163742072657475726e656420616e20756e6b6e6f776e2076616c75652066726f6d206f6e455243313135355265636569766564a265627a7a7230582000a8e9d205d61dc1214d361bdf7ada517ecf940d2886abda1f798e4bd89ce33164736f6c634300050a0032","compiler":{"name":"solc","version":"0.5.10+commit.5a6ea5b1.Emscripten.clang","optimizer":{},"evmVersion":"constantinople"}}