{"fileName":"ERC1155MockReceiver.sol","contractName":"ERC1155MockReceiver","source":"pragma solidity ^0.5.0;\n\nimport \"./Common.sol\";\nimport \"./IERC1155TokenReceiver.sol\";\n\n// Contract to test safe transfer behavior.\ncontract ERC1155MockReceiver is ERC1155TokenReceiver, CommonConstants {\n\n    // Keep values from last received contract.\n    bool public shouldReject;\n\n    bytes public lastData;\n    address public lastOperator;\n    address public lastFrom;\n    uint256 public lastId;\n    uint256 public lastValue;\n\n    function setShouldReject(bool _value) public {\n        shouldReject = _value;\n    }\n\n    function onERC1155Received(address _operator, address _from, uint256 _id, uint256 _value, bytes calldata _data) external returns(bytes4) {\n        lastOperator = _operator;\n        lastFrom = _from;\n        lastId = _id;\n        lastValue = _value;\n        lastData = _data;\n        if (shouldReject == true) {\n            revert(\"onERC1155Received: transfer not accepted\");\n        } else {\n            return ERC1155_ACCEPTED;\n        }\n    }\n\n    function onERC1155BatchReceived(address _operator, address _from, uint256[] calldata _ids, uint256[] calldata _values, bytes calldata _data) external returns(bytes4) {\n        lastOperator = _operator;\n        lastFrom = _from;\n        lastId = _ids[0];\n        lastValue = _values[0];\n        lastData = _data;\n        if (shouldReject == true) {\n            revert(\"onERC1155BatchReceived: transfer not accepted\");\n        } else {\n            return ERC1155_BATCH_ACCEPTED;\n        }\n    }\n\n    // ERC165 interface support\n    function supportsInterface(bytes4 interfaceID) external view returns (bool) {\n        return  interfaceID == 0x01ffc9a7 ||    // ERC165\n                interfaceID == 0x4e2312e0;      // ERC1155_ACCEPTED ^ ERC1155_BATCH_ACCEPTED;\n    }\n}\n","sourcePath":"contracts/erc-1155/contracts/ERC1155MockReceiver.sol","abi":[{"constant":true,"inputs":[],"name":"lastData","outputs":[{"name":"","type":"bytes"}],"payable":false,"stateMutability":"view","type":"function"},{"constant":true,"inputs":[{"name":"interfaceID","type":"bytes4"}],"name":"supportsInterface","outputs":[{"name":"","type":"bool"}],"payable":false,"stateMutability":"view","type":"function"},{"constant":true,"inputs":[],"name":"shouldReject","outputs":[{"name":"","type":"bool"}],"payable":false,"stateMutability":"view","type":"function"},{"constant":true,"inputs":[],"name":"lastValue","outputs":[{"name":"","type":"uint256"}],"payable":false,"stateMutability":"view","type":"function"},{"constant":true,"inputs":[],"name":"lastOperator","outputs":[{"name":"","type":"address"}],"payable":false,"stateMutability":"view","type":"function"},{"constant":true,"inputs":[],"name":"lastFrom","outputs":[{"name":"","type":"address"}],"payable":false,"stateMutability":"view","type":"function"},{"constant":false,"inputs":[{"name":"_value","type":"bool"}],"name":"setShouldReject","outputs":[],"payable":false,"stateMutability":"nonpayable","type":"function"},{"constant":false,"inputs":[{"name":"_operator","type":"address"},{"name":"_from","type":"address"},{"name":"_ids","type":"uint256[]"},{"name":"_values","type":"uint256[]"},{"name":"_data","type":"bytes"}],"name":"onERC1155BatchReceived","outputs":[{"name":"","type":"bytes4"}],"payable":false,"stateMutability":"nonpayable","type":"function"},{"constant":true,"inputs":[],"name":"lastId","outputs":[{"name":"","type":"uint256"}],"payable":false,"stateMutability":"view","type":"function"},{"constant":false,"inputs":[{"name":"_operator","type":"address"},{"name":"_from","type":"address"},{"name":"_id","type":"uint256"},{"name":"_value","type":"uint256"},{"name":"_data","type":"bytes"}],"name":"onERC1155Received","outputs":[{"name":"","type":"bytes4"}],"payable":false,"stateMutability":"nonpayable","type":"function"}],"bytecode":"0x60806040523480156100115760006000fd5b50610017565b610b14806100266000396000f3fe60806040523480156100115760006000fd5b50600436106100a25760003560e01c80638044337811610067578063804433781461021c578063a175b63814610266578063bc197c8114610297578063c1292cc31461045c578063f23a6e611461047a576100a2565b80626e75ec146100a857806301ffc9a71461012c5780631dbb93811461019257806343183834146101b45780636eb3cd49146101d2576100a2565b60006000fd5b6100b061059f565b6040518080602001828103825283818151815260200191508051906020019080838360005b838110156100f15780820151818401525b6020810190506100d5565b50505050905090810190601f16801561011e5780820380516001836020036101000a031916815260200191505b509250505060405180910390f35b610178600480360360208110156101435760006000fd5b8101908080357bffffffffffffffffffffffffffffffffffffffffffffffffffffffff19169060200190929190505050610640565b604051808215151515815260200191505060405180910390f35b61019a6106a7565b604051808215151515815260200191505060405180910390f35b6101bc6106ba565b6040518082815260200191505060405180910390f35b6101da6106c3565b604051808273ffffffffffffffffffffffffffffffffffffffff1673ffffffffffffffffffffffffffffffffffffffff16815260200191505060405180910390f35b6102246106e9565b604051808273ffffffffffffffffffffffffffffffffffffffff1673ffffffffffffffffffffffffffffffffffffffff16815260200191505060405180910390f35b6102956004803603602081101561027d5760006000fd5b8101908080351515906020019092919050505061070f565b005b610408600480360360a08110156102ae5760006000fd5b81019080803573ffffffffffffffffffffffffffffffffffffffff169060200190929190803573ffffffffffffffffffffffffffffffffffffffff1690602001909291908035906020019064010000000081111561030c5760006000fd5b82018360208201111561031f5760006000fd5b803590602001918460208302840111640100000000831117156103425760006000fd5b90919293909091929390803590602001906401000000008111156103665760006000fd5b8201836020820111156103795760006000fd5b8035906020019184602083028401116401000000008311171561039c5760006000fd5b90919293909091929390803590602001906401000000008111156103c05760006000fd5b8201836020820111156103d35760006000fd5b803590602001918460018302840111640100000000831117156103f65760006000fd5b9091929390909192939050505061072d565b60405180827bffffffffffffffffffffffffffffffffffffffffffffffffffffffff19167bffffffffffffffffffffffffffffffffffffffffffffffffffffffff1916815260200191505060405180910390f35b610464610895565b6040518082815260200191505060405180910390f35b61054b600480360360a08110156104915760006000fd5b81019080803573ffffffffffffffffffffffffffffffffffffffff169060200190929190803573ffffffffffffffffffffffffffffffffffffffff1690602001909291908035906020019092919080359060200190929190803590602001906401000000008111156105035760006000fd5b8201836020820111156105165760006000fd5b803590602001918460018302840111640100000000831117156105395760006000fd5b9091929390909192939050505061089e565b60405180827bffffffffffffffffffffffffffffffffffffffffffffffffffffffff19167bffffffffffffffffffffffffffffffffffffffffffffffffffffffff1916815260200191505060405180910390f35b60016000508054600181600116156101000203166002900480601f0160208091040260200160405190810160405280929190818152602001828054600181600116156101000203166002900480156106385780601f1061060d57610100808354040283529160200191610638565b820191906000526020600020905b81548152906001019060200180831161061b57829003601f168201915b505050505081565b60006301ffc9a760e01b827bffffffffffffffffffffffffffffffffffffffffffffffffffffffff1916148061069b5750634e2312e060e01b827bffffffffffffffffffffffffffffffffffffffffffffffffffffffff1916145b90506106a2565b919050565b600060009054906101000a900460ff1681565b60056000505481565b600260009054906101000a900473ffffffffffffffffffffffffffffffffffffffff1681565b600360009054906101000a900473ffffffffffffffffffffffffffffffffffffffff1681565b80600060006101000a81548160ff0219169083151502179055505b50565b600088600260006101000a81548173ffffffffffffffffffffffffffffffffffffffff021916908373ffffffffffffffffffffffffffffffffffffffff16021790555087600360006101000a81548173ffffffffffffffffffffffffffffffffffffffff021916908373ffffffffffffffffffffffffffffffffffffffff1602179055508686600081811015156107c057fe5b9050602002013560046000508190909055508484600081811015156107e157fe5b9050602002013560056000508190909055508282600160005091906108079291906109da565b5060011515600060009054906101000a900460ff1615151415610879576040517f08c379a000000000000000000000000000000000000000000000000000000000815260040180806020018281038252602d815260200180610a8b602d913960400191505060405180910390fd610888565b63bc197c8160e01b9050610889565b5b98975050505050505050565b60046000505481565b600086600260006101000a81548173ffffffffffffffffffffffffffffffffffffffff021916908373ffffffffffffffffffffffffffffffffffffffff16021790555085600360006101000a81548173ffffffffffffffffffffffffffffffffffffffff021916908373ffffffffffffffffffffffffffffffffffffffff16021790555084600460005081909090555083600560005081909090555082826001600050919061094e9291906109da565b5060011515600060009054906101000a900460ff16151514156109c0576040517f08c379a0000000000000000000000000000000000000000000000000000000008152600401808060200182810382526028815260200180610ab86028913960400191505060405180910390fd6109cf565b63f23a6e6160e01b90506109d0565b5b9695505050505050565b828054600181600116156101000203166002900490600052602060002090601f016020900481019282601f10610a1b57803560ff1916838001178555610a4e565b82800160010185558215610a4e579182015b82811115610a4d5782358260005090905591602001919060010190610a2d565b5b509050610a5b9190610a5f565b5090565b610a879190610a69565b80821115610a835760008181506000905550600101610a69565b5090565b9056fe6f6e45524331313535426174636852656365697665643a207472616e73666572206e6f742061636365707465646f6e4552433131353552656365697665643a207472616e73666572206e6f74206163636570746564a265627a7a723058200d9db111727e5ffd3d113f8b5193990cb74c3354a514dc060b458ab053adc6c064736f6c634300050a0032","compiler":{"name":"solc","version":"0.5.10+commit.5a6ea5b1.Emscripten.clang","optimizer":{},"evmVersion":"constantinople"}}