{
  "fileName": "ERC1155MixedFungibleMintable.sol",
  "contractName": "ERC1155MixedFungibleMintable",
  "source": "pragma solidity ^0.5.0;\n\nimport \"./ERC1155MixedFungible.sol\";\n\n/**\n    @dev Mintable form of ERC1155\n    Shows how easy it is to mint new items\n*/\ncontract ERC1155MixedFungibleMintable is ERC1155MixedFungible {\n\n    uint256 nonce;\n    mapping (uint256 => address) public creators;\n    mapping (uint256 => uint256) public maxIndex;\n\n    modifier creatorOnly(uint256 _id) {\n        require(creators[_id] == msg.sender);\n        _;\n    }\n\n    // This function only creates the type.\n    function create(\n        string calldata _uri,\n        bool   _isNF)\n    external returns(uint256 _type) {\n\n        // Store the type in the upper 128 bits\n        _type = (++nonce << 128);\n\n        // Set a flag if this is an NFI.\n        if (_isNF)\n          _type = _type | TYPE_NF_BIT;\n\n        // This will allow restricted access to creators.\n        creators[_type] = msg.sender;\n\n        // emit a Transfer event with Create semantic to help with discovery.\n        emit TransferSingle(msg.sender, address(0x0), address(0x0), _type, 0);\n\n        if (bytes(_uri).length > 0)\n            emit URI(_uri, _type);\n    }\n\n    function mintNonFungible(uint256 _type, address[] calldata _to) external creatorOnly(_type) {\n\n        // No need to check this is a nf type rather than an id since\n        // creatorOnly() will only let a type pass through.\n        require(isNonFungible(_type));\n\n        // Index are 1-based.\n        uint256 index = maxIndex[_type] + 1;\n        maxIndex[_type] = _to.length.add(maxIndex[_type]);\n\n        for (uint256 i = 0; i < _to.length; ++i) {\n            address dst = _to[i];\n            uint256 id  = _type | index + i;\n\n            nfOwners[id] = dst;\n\n            // You could use base-type id to store NF type balances if you wish.\n            // balances[_type][dst] = quantity.add(balances[_type][dst]);\n\n            emit TransferSingle(msg.sender, address(0x0), dst, id, 1);\n\n            if (dst.isContract()) {\n                _doSafeTransferAcceptanceCheck(msg.sender, msg.sender, dst, id, 1, '');\n            }\n        }\n    }\n\n    function mintFungible(uint256 _id, address[] calldata _to, uint256[] calldata _quantities) external creatorOnly(_id) {\n\n        require(isFungible(_id));\n\n        for (uint256 i = 0; i < _to.length; ++i) {\n\n            address to = _to[i];\n            uint256 quantity = _quantities[i];\n\n            // Grant the items to the caller\n            balances[_id][to] = quantity.add(balances[_id][to]);\n\n            // Emit the Transfer/Mint event.\n            // the 0x0 source address implies a mint\n            // It will also provide the circulating supply info.\n            emit TransferSingle(msg.sender, address(0x0), to, _id, quantity);\n\n            if (to.isContract()) {\n                _doSafeTransferAcceptanceCheck(msg.sender, msg.sender, to, _id, quantity, '');\n            }\n        }\n    }\n}\n",
  "sourcePath": "contracts/erc-1155/contracts/ERC1155MixedFungibleMintable.sol",
  "abi": [
    {
      "constant": true,
      "inputs": [
        {
          "name": "_owner",
          "type": "address"
        },
        {
          "name": "_id",
          "type": "uint256"
        }
      ],
      "name": "balanceOf",
      "outputs": [
        {
          "name": "",
          "type": "uint256"
        }
      ],
      "payable": false,
      "stateMutability": "view",
      "type": "function"
    },
    {
      "constant": true,
      "inputs": [
        {
          "name": "_interfaceId",
          "type": "bytes4"
        }
      ],
      "name": "supportsInterface",
      "outputs": [
        {
          "name": "",
          "type": "bool"
        }
      ],
      "payable": false,
      "stateMutability": "view",
      "type": "function"
    },
    {
      "constant": true,
      "inputs": [
        {
          "name": "",
          "type": "uint256"
        }
      ],
      "name": "maxIndex",
      "outputs": [
        {
          "name": "",
          "type": "uint256"
        }
      ],
      "payable": false,
      "stateMutability": "view",
      "type": "function"
    },
    {
      "constant": false,
      "inputs": [
        {
          "name": "_from",
          "type": "address"
        },
        {
          "name": "_to",
          "type": "address"
        },
        {
          "name": "_ids",
          "type": "uint256[]"
        },
        {
          "name": "_values",
          "type": "uint256[]"
        },
        {
          "name": "_data",
          "type": "bytes"
        }
      ],
      "name": "safeBatchTransferFrom",
      "outputs": [],
      "payable": false,
      "stateMutability": "nonpayable",
      "type": "function"
    },
    {
      "constant": true,
      "inputs": [
        {
          "name": "_owners",
          "type": "address[]"
        },
        {
          "name": "_ids",
          "type": "uint256[]"
        }
      ],
      "name": "balanceOfBatch",
      "outputs": [
        {
          "name": "",
          "type": "uint256[]"
        }
      ],
      "payable": false,
      "stateMutability": "view",
      "type": "function"
    },
    {
      "constant": true,
      "inputs": [
        {
          "name": "_id",
          "type": "uint256"
        }
      ],
      "name": "isNonFungibleItem",
      "outputs": [
        {
          "name": "",
          "type": "bool"
        }
      ],
      "payable": false,
      "stateMutability": "pure",
      "type": "function"
    },
    {
      "constant": true,
      "inputs": [
        {
          "name": "_id",
          "type": "uint256"
        }
      ],
      "name": "ownerOf",
      "outputs": [
        {
          "name": "",
          "type": "address"
        }
      ],
      "payable": false,
      "stateMutability": "view",
      "type": "function"
    },
    {
      "constant": true,
      "inputs": [
        {
          "name": "_id",
          "type": "uint256"
        }
      ],
      "name": "getNonFungibleBaseType",
      "outputs": [
        {
          "name": "",
          "type": "uint256"
        }
      ],
      "payable": false,
      "stateMutability": "pure",
      "type": "function"
    },
    {
      "constant": true,
      "inputs": [
        {
          "name": "_id",
          "type": "uint256"
        }
      ],
      "name": "isNonFungibleBaseType",
      "outputs": [
        {
          "name": "",
          "type": "bool"
        }
      ],
      "payable": false,
      "stateMutability": "pure",
      "type": "function"
    },
    {
      "constant": false,
      "inputs": [
        {
          "name": "_id",
          "type": "uint256"
        },
        {
          "name": "_to",
          "type": "address[]"
        },
        {
          "name": "_quantities",
          "type": "uint256[]"
        }
      ],
      "name": "mintFungible",
      "outputs": [],
      "payable": false,
      "stateMutability": "nonpayable",
      "type": "function"
    },
    {
      "constant": true,
      "inputs": [
        {
          "name": "_id",
          "type": "uint256"
        }
      ],
      "name": "getNonFungibleIndex",
      "outputs": [
        {
          "name": "",
          "type": "uint256"
        }
      ],
      "payable": false,
      "stateMutability": "pure",
      "type": "function"
    },
    {
      "constant": false,
      "inputs": [
        {
          "name": "_operator",
          "type": "address"
        },
        {
          "name": "_approved",
          "type": "bool"
        }
      ],
      "name": "setApprovalForAll",
      "outputs": [],
      "payable": false,
      "stateMutability": "nonpayable",
      "type": "function"
    },
    {
      "constant": true,
      "inputs": [
        {
          "name": "_id",
          "type": "uint256"
        }
      ],
      "name": "isFungible",
      "outputs": [
        {
          "name": "",
          "type": "bool"
        }
      ],
      "payable": false,
      "stateMutability": "pure",
      "type": "function"
    },
    {
      "constant": false,
      "inputs": [
        {
          "name": "_uri",
          "type": "string"
        },
        {
          "name": "_isNF",
          "type": "bool"
        }
      ],
      "name": "create",
      "outputs": [
        {
          "name": "_type",
          "type": "uint256"
        }
      ],
      "payable": false,
      "stateMutability": "nonpayable",
      "type": "function"
    },
    {
      "constant": true,
      "inputs": [
        {
          "name": "",
          "type": "uint256"
        }
      ],
      "name": "creators",
      "outputs": [
        {
          "name": "",
          "type": "address"
        }
      ],
      "payable": false,
      "stateMutability": "view",
      "type": "function"
    },
    {
      "constant": true,
      "inputs": [
        {
          "name": "_id",
          "type": "uint256"
        }
      ],
      "name": "isNonFungible",
      "outputs": [
        {
          "name": "",
          "type": "bool"
        }
      ],
      "payable": false,
      "stateMutability": "pure",
      "type": "function"
    },
    {
      "constant": true,
      "inputs": [
        {
          "name": "_owner",
          "type": "address"
        },
        {
          "name": "_operator",
          "type": "address"
        }
      ],
      "name": "isApprovedForAll",
      "outputs": [
        {
          "name": "",
          "type": "bool"
        }
      ],
      "payable": false,
      "stateMutability": "view",
      "type": "function"
    },
    {
      "constant": false,
      "inputs": [
        {
          "name": "_from",
          "type": "address"
        },
        {
          "name": "_to",
          "type": "address"
        },
        {
          "name": "_id",
          "type": "uint256"
        },
        {
          "name": "_value",
          "type": "uint256"
        },
        {
          "name": "_data",
          "type": "bytes"
        }
      ],
      "name": "safeTransferFrom",
      "outputs": [],
      "payable": false,
      "stateMutability": "nonpayable",
      "type": "function"
    },
    {
      "constant": false,
      "inputs": [
        {
          "name": "_type",
          "type": "uint256"
        },
        {
          "name": "_to",
          "type": "address[]"
        }
      ],
      "name": "mintNonFungible",
      "outputs": [],
      "payable": false,
      "stateMutability": "nonpayable",
      "type": "function"
    },
    {
      "anonymous": false,
      "inputs": [
        {
          "indexed": true,
          "name": "_operator",
          "type": "address"
        },
        {
          "indexed": true,
          "name": "_from",
          "type": "address"
        },
        {
          "indexed": true,
          "name": "_to",
          "type": "address"
        },
        {
          "indexed": false,
          "name": "_id",
          "type": "uint256"
        },
        {
          "indexed": false,
          "name": "_value",
          "type": "uint256"
        }
      ],
      "name": "TransferSingle",
      "type": "event"
    },
    {
      "anonymous": false,
      "inputs": [
        {
          "indexed": true,
          "name": "_operator",
          "type": "address"
        },
        {
          "indexed": true,
          "name": "_from",
          "type": "address"
        },
        {
          "indexed": true,
          "name": "_to",
          "type": "address"
        },
        {
          "indexed": false,
          "name": "_ids",
          "type": "uint256[]"
        },
        {
          "indexed": false,
          "name": "_values",
          "type": "uint256[]"
        }
      ],
      "name": "TransferBatch",
      "type": "event"
    },
    {
      "anonymous": false,
      "inputs": [
        {
          "indexed": true,
          "name": "_owner",
          "type": "address"
        },
        {
          "indexed": true,
          "name": "_operator",
          "type": "address"
        },
        {
          "indexed": false,
          "name": "_approved",
          "type": "bool"
        }
      ],
      "name": "ApprovalForAll",
      "type": "event"
    },
    {
      "anonymous": false,
      "inputs": [
        {
          "indexed": false,
          "name": "_value",
          "type": "string"
        },
        {
          "indexed": true,
          "name": "_id",
          "type": "uint256"
        }
      ],
      "name": "URI",
      "type": "event"
    }
  ],
  "bytecode": "0x60806040523480156100115760006000fd5b50610017565b612c5b806100266000396000f3fe60806040523480156100115760006000fd5b50600436106101255760003560e01c806378b27221116100ae578063cd53d08e11610072578063cd53d08e14610876578063e44591f0146108e5578063e985e9c51461092c578063f242432a146109a9578063f941908814610a7c57610125565b806378b27221146106195780639cca1c64146106fc578063a22cb4651461073f578063adebf6f214610790578063cc10e401146107d757610125565b80634e1273f4116100f55780634e1273f4146103aa5780635e81b958146104d95780636352211e146105205780636f969c2d1461058f5780637269a327146105d257610125565b8062fdd58e1461012b57806301ffc9a71461018e57806308d7d469146101f45780632eb2c2d61461023757610125565b60006000fd5b610178600480360360408110156101425760006000fd5b81019080803573ffffffffffffffffffffffffffffffffffffffff16906020019092919080359060200190929190505050610b05565b6040518082815260200191505060405180910390f35b6101da600480360360208110156101a55760006000fd5b8101908080357bffffffffffffffffffffffffffffffffffffffffffffffffffffffff19169060200190929190505050610bff565b604051808215151515815260200191505060405180910390f35b6102216004803603602081101561020b5760006000fd5b8101908080359060200190929190505050610cb4565b6040518082815260200191505060405180910390f35b6103a8600480360360a081101561024e5760006000fd5b81019080803573ffffffffffffffffffffffffffffffffffffffff169060200190929190803573ffffffffffffffffffffffffffffffffffffffff169060200190929190803590602001906401000000008111156102ac5760006000fd5b8201836020820111156102bf5760006000fd5b803590602001918460208302840111640100000000831117156102e25760006000fd5b90919293909091929390803590602001906401000000008111156103065760006000fd5b8201836020820111156103195760006000fd5b8035906020019184602083028401116401000000008311171561033c5760006000fd5b90919293909091929390803590602001906401000000008111156103605760006000fd5b8201836020820111156103735760006000fd5b803590602001918460018302840111640100000000831117156103965760006000fd5b90919293909091929390505050610ccf565b005b610481600480360360408110156103c15760006000fd5b81019080803590602001906401000000008111156103df5760006000fd5b8201836020820111156103f25760006000fd5b803590602001918460208302840111640100000000831117156104155760006000fd5b90919293909091929390803590602001906401000000008111156104395760006000fd5b82018360208201111561044c5760006000fd5b8035906020019184602083028401116401000000008311171561046f5760006000fd5b909192939090919293905050506113da565b6040518080602001828103825283818151815260200191508051906020019060200280838360005b838110156104c55780820151818401525b6020810190506104a9565b505050509050019250505060405180910390f35b610506600480360360208110156104f05760006000fd5b81019080803590602001909291905050506115f1565b604051808215151515815260200191505060405180910390f35b61054d600480360360208110156105375760006000fd5b8101908080359060200190929190505050611685565b604051808273ffffffffffffffffffffffffffffffffffffffff1673ffffffffffffffffffffffffffffffffffffffff16815260200191505060405180910390f35b6105bc600480360360208110156105a65760006000fd5b81019080803590602001909291905050506116ca565b6040518082815260200191505060405180910390f35b6105ff600480360360208110156105e95760006000fd5b8101908080359060200190929190505050611711565b604051808215151515815260200191505060405180910390f35b6106fa600480360360608110156106305760006000fd5b8101908080359060200190929190803590602001906401000000008111156106585760006000fd5b82018360208201111561066b5760006000fd5b8035906020019184602083028401116401000000008311171561068e5760006000fd5b90919293909091929390803590602001906401000000008111156106b25760006000fd5b8201836020820111156106c55760006000fd5b803590602001918460208302840111640100000000831117156106e85760006000fd5b909192939090919293905050506117a4565b005b610729600480360360208110156107135760006000fd5b8101908080359060200190929190505050611a49565b6040518082815260200191505060405180910390f35b61078e600480360360408110156107565760006000fd5b81019080803573ffffffffffffffffffffffffffffffffffffffff169060200190929190803515159060200190929190505050611a8c565b005b6107bd600480360360208110156107a75760006000fd5b8101908080359060200190929190505050611b94565b604051808215151515815260200191505060405180910390f35b610860600480360360408110156107ee5760006000fd5b810190808035906020019064010000000081111561080c5760006000fd5b82018360208201111561081f5760006000fd5b803590602001918460018302840111640100000000831117156108425760006000fd5b90919293909091929390803515159060200190929190505050611bc8565b6040518082815260200191505060405180910390f35b6108a36004803603602081101561088d5760006000fd5b8101908080359060200190929190505050611d68565b604051808273ffffffffffffffffffffffffffffffffffffffff1673ffffffffffffffffffffffffffffffffffffffff16815260200191505060405180910390f35b610912600480360360208110156108fc5760006000fd5b8101908080359060200190929190505050611da0565b604051808215151515815260200191505060405180910390f35b61098f600480360360408110156109435760006000fd5b81019080803573ffffffffffffffffffffffffffffffffffffffff169060200190929190803573ffffffffffffffffffffffffffffffffffffffff169060200190929190505050611df3565b604051808215151515815260200191505060405180910390f35b610a7a600480360360a08110156109c05760006000fd5b81019080803573ffffffffffffffffffffffffffffffffffffffff169060200190929190803573ffffffffffffffffffffffffffffffffffffffff169060200190929190803590602001909291908035906020019092919080359060200190640100000000811115610a325760006000fd5b820183602082011115610a455760006000fd5b80359060200191846001830284011164010000000083111715610a685760006000fd5b90919293909091929390505050611e92565b005b610b0360048036036040811015610a935760006000fd5b810190808035906020019092919080359060200190640100000000811115610abb5760006000fd5b820183602082011115610ace5760006000fd5b80359060200191846020830284011164010000000083111715610af15760006000fd5b909192939090919293905050506123e6565b005b6000610b16826115f163ffffffff16565b15610b98578273ffffffffffffffffffffffffffffffffffffffff166002600050600084815260200190815260200160002060009054906101000a900473ffffffffffffffffffffffffffffffffffffffff1673ffffffffffffffffffffffffffffffffffffffff1614610b8b576000610b8e565b60015b60ff169050610bf9565b6000600050600083815260200190815260200160002060005060008473ffffffffffffffffffffffffffffffffffffffff1673ffffffffffffffffffffffffffffffffffffffff168152602001908152602001600020600050549050610bf9565b92915050565b60006301ffc9a760e01b7bffffffffffffffffffffffffffffffffffffffffffffffffffffffff1916827bffffffffffffffffffffffffffffffffffffffffffffffffffffffff19161480610c98575063d9b67a2660e01b7bffffffffffffffffffffffffffffffffffffffffffffffffffffffff1916827bffffffffffffffffffffffffffffffffffffffffffffffffffffffff1916145b15610ca65760019050610caf565b60009050610caf565b919050565b60056000506020528060005260406000206000915090505481565b600073ffffffffffffffffffffffffffffffffffffffff168773ffffffffffffffffffffffffffffffffffffffff1614151515610d77576040517f08c379a000000000000000000000000000000000000000000000000000000000815260040180806020018281038252601b8152602001807f63616e6e6f742073656e6420746f207a65726f2061646472657373000000000081526020015060200191505060405180910390fd5b8383905086869050141515610df7576040517f08c379a00000000000000000000000000000000000000000000000000000000081526004018080602001828103825260178152602001807f4172726179206c656e677468206d757374206d6174636800000000000000000081526020015060200191505060405180910390fd5b3373ffffffffffffffffffffffffffffffffffffffff168873ffffffffffffffffffffffffffffffffffffffff161480610ec4575060011515600160005060008a73ffffffffffffffffffffffffffffffffffffffff1673ffffffffffffffffffffffffffffffffffffffff16815260200190815260200160002060005060003373ffffffffffffffffffffffffffffffffffffffff1673ffffffffffffffffffffffffffffffffffffffff16815260200190815260200160002060009054906101000a900460ff161515145b1515610f1b576040517f08c379a000000000000000000000000000000000000000000000000000000000815260040180806020018281038252602f815260200180612b81602f913960400191505060405180910390fd5b6000600090505b868690508110156111e55760008787838181101515610f3d57fe5b90506020020135905060008686848181101515610f5657fe5b905060200201359050610f6e82611da063ffffffff16565b1561103e578a73ffffffffffffffffffffffffffffffffffffffff166002600050600084815260200190815260200160002060009054906101000a900473ffffffffffffffffffffffffffffffffffffffff1673ffffffffffffffffffffffffffffffffffffffff16141515610fe45760006000fd5b896002600050600084815260200190815260200160002060006101000a81548173ffffffffffffffffffffffffffffffffffffffff021916908373ffffffffffffffffffffffffffffffffffffffff1602179055506111d5565b6110aa816000600050600085815260200190815260200160002060005060008e73ffffffffffffffffffffffffffffffffffffffff1673ffffffffffffffffffffffffffffffffffffffff1681526020019081526020016000206000505461267590919063ffffffff16565b6000600050600084815260200190815260200160002060005060008d73ffffffffffffffffffffffffffffffffffffffff1673ffffffffffffffffffffffffffffffffffffffff1681526020019081526020016000206000508190909055506111756000600050600084815260200190815260200160002060005060008c73ffffffffffffffffffffffffffffffffffffffff1673ffffffffffffffffffffffffffffffffffffffff168152602001908152602001600020600050548261269390919063ffffffff16565b6000600050600084815260200190815260200160002060005060008c73ffffffffffffffffffffffffffffffffffffffff1673ffffffffffffffffffffffffffffffffffffffff1681526020019081526020016000206000508190909055505b50505b8060010190508050610f22565b508673ffffffffffffffffffffffffffffffffffffffff168873ffffffffffffffffffffffffffffffffffffffff163373ffffffffffffffffffffffffffffffffffffffff167f4a39dc06d4c0dbc64b70af90fd698a233a518aa5d07e595d983b8c0526c8f7fb898989896040518080602001806020018381038352878782818152602001925060200280828437600081840152601f19601f8201169050808301925050508381038252858582818152602001925060200280828437600081840152601f19601f820116905080830192505050965050505050505060405180910390a46112ef8773ffffffffffffffffffffffffffffffffffffffff166126b6909063ffffffff16565b156113cf576113ce338989898980806020026020016040519081016040528093929190818152602001838360200280828437600081840152601f19601f82011690508083019250505050505050888880806020026020016040519081016040528093929190818152602001838360200280828437600081840152601f19601f8201169050808301925050505050505087878080601f016020809104026020016040519081016040528093929190818152602001838380828437600081840152601f19601f820116905080830192505050505050506126d063ffffffff16565b5b5b5050505050505050565b606082829050858590501415156113f15760006000fd5b6060858590506040519080825280602002602001820160405280156114255781602001602082028038833980820191505090505b5090506000600090505b868690508110156115de576000858583818110151561144a57fe5b905060200201359050611462816115f163ffffffff16565b1561152b57878783818110151561147557fe5b9050602002013573ffffffffffffffffffffffffffffffffffffffff1673ffffffffffffffffffffffffffffffffffffffff166002600050600083815260200190815260200160002060009054906101000a900473ffffffffffffffffffffffffffffffffffffffff1673ffffffffffffffffffffffffffffffffffffffff1614611501576000611504565b60015b60ff16838381518110151561151557fe5b60200260200101909081815260200150506115cf565b600060005060008281526020019081526020016000206000506000898985818110151561155457fe5b9050602002013573ffffffffffffffffffffffffffffffffffffffff1673ffffffffffffffffffffffffffffffffffffffff1673ffffffffffffffffffffffffffffffffffffffff1681526020019081526020016000206000505483838151811015156115bd57fe5b60200260200101909081815260200150505b505b806001019050805061142f565b50809150506115e956505b949350505050565b60007f80000000000000000000000000000000000000000000000000000000000000007f80000000000000000000000000000000000000000000000000000000000000008316148015611679575060007fffffffffffffffffffffffffffffffffffffffffffffffffffffffffffffffff6fffffffffffffffffffffffffffffffff16831614155b9050611680565b919050565b60006002600050600083815260200190815260200160002060009054906101000a900473ffffffffffffffffffffffffffffffffffffffff1690506116c5565b919050565b600060807fffffffffffffffffffffffffffffffffffffffffffffffffffffffffffffffff6fffffffffffffffffffffffffffffffff16901b8216905061170c565b919050565b60007f80000000000000000000000000000000000000000000000000000000000000007f80000000000000000000000000000000000000000000000000000000000000008316148015611798575060007fffffffffffffffffffffffffffffffffffffffffffffffffffffffffffffffff6fffffffffffffffffffffffffffffffff168316145b905061179f565b919050565b843373ffffffffffffffffffffffffffffffffffffffff166004600050600083815260200190815260200160002060009054906101000a900473ffffffffffffffffffffffffffffffffffffffff1673ffffffffffffffffffffffffffffffffffffffff161415156118165760006000fd5b61182586611b9463ffffffff16565b15156118315760006000fd5b6000600090505b85859050811015611a3e576000868683818110151561185357fe5b9050602002013573ffffffffffffffffffffffffffffffffffffffff1690506000858584818110151561188257fe5b9050602002013590506118f7600060005060008b815260200190815260200160002060005060008473ffffffffffffffffffffffffffffffffffffffff1673ffffffffffffffffffffffffffffffffffffffff168152602001908152602001600020600050548261269390919063ffffffff16565b600060005060008b815260200190815260200160002060005060008473ffffffffffffffffffffffffffffffffffffffff1673ffffffffffffffffffffffffffffffffffffffff1681526020019081526020016000206000508190909055508173ffffffffffffffffffffffffffffffffffffffff16600073ffffffffffffffffffffffffffffffffffffffff163373ffffffffffffffffffffffffffffffffffffffff167fc3d58168c5ae7397731d063d5bbf3d657854427343f4c083240f7aacaa2d0f628c85604051808381526020018281526020019250505060405180910390a4611a028273ffffffffffffffffffffffffffffffffffffffff166126b6909063ffffffff16565b15611a2e57611a2d3333848c856040518060200160405280600081526020015061296a63ffffffff16565b5b50505b8060010190508050611838565b505b5b505050505050565b60007fffffffffffffffffffffffffffffffffffffffffffffffffffffffffffffffff6fffffffffffffffffffffffffffffffff1682169050611a87565b919050565b80600160005060003373ffffffffffffffffffffffffffffffffffffffff1673ffffffffffffffffffffffffffffffffffffffff16815260200190815260200160002060005060008473ffffffffffffffffffffffffffffffffffffffff1673ffffffffffffffffffffffffffffffffffffffff16815260200190815260200160002060006101000a81548160ff0219169083151502179055508173ffffffffffffffffffffffffffffffffffffffff163373ffffffffffffffffffffffffffffffffffffffff167f17307eab39ab6107e8899845ad3d59bd9653f200f220920489ca2b5937696c3183604051808215151515815260200191505060405180910390a35b5050565b600060007f80000000000000000000000000000000000000000000000000000000000000008316149050611bc3565b919050565b6000608060036000818150546001019190508190909055901b905080508115611c13577f80000000000000000000000000000000000000000000000000000000000000008117905080505b336004600050600083815260200190815260200160002060006101000a81548173ffffffffffffffffffffffffffffffffffffffff021916908373ffffffffffffffffffffffffffffffffffffffff160217905550600073ffffffffffffffffffffffffffffffffffffffff16600073ffffffffffffffffffffffffffffffffffffffff163373ffffffffffffffffffffffffffffffffffffffff167fc3d58168c5ae7397731d063d5bbf3d657854427343f4c083240f7aacaa2d0f62846000604051808381526020018281526020019250505060405180910390a46000848490501115611d6057807f6bb7ff708619ba0610cba295a58592e0451dee2622938c8755667688daf3529b858560405180806020018281038252848482818152602001925080828437600081840152601f19601f820116905080830192505050935050505060405180910390a25b5b9392505050565b600460005060205280600052604060002060009150909054906101000a900473ffffffffffffffffffffffffffffffffffffffff1681565b60007f80000000000000000000000000000000000000000000000000000000000000007f80000000000000000000000000000000000000000000000000000000000000008316149050611dee565b919050565b6000600160005060008473ffffffffffffffffffffffffffffffffffffffff1673ffffffffffffffffffffffffffffffffffffffff16815260200190815260200160002060005060008373ffffffffffffffffffffffffffffffffffffffff1673ffffffffffffffffffffffffffffffffffffffff16815260200190815260200160002060009054906101000a900460ff169050611e8c565b92915050565b600073ffffffffffffffffffffffffffffffffffffffff168573ffffffffffffffffffffffffffffffffffffffff1614151515611f3a576040517f08c379a000000000000000000000000000000000000000000000000000000000815260040180806020018281038252601b8152602001807f63616e6e6f742073656e6420746f207a65726f2061646472657373000000000081526020015060200191505060405180910390fd5b3373ffffffffffffffffffffffffffffffffffffffff168673ffffffffffffffffffffffffffffffffffffffff161480612007575060011515600160005060008873ffffffffffffffffffffffffffffffffffffffff1673ffffffffffffffffffffffffffffffffffffffff16815260200190815260200160002060005060003373ffffffffffffffffffffffffffffffffffffffff1673ffffffffffffffffffffffffffffffffffffffff16815260200190815260200160002060009054906101000a900460ff161515145b151561205e576040517f08c379a000000000000000000000000000000000000000000000000000000000815260040180806020018281038252602f815260200180612b81602f913960400191505060405180910390fd5b61206d84611da063ffffffff16565b1561213d578573ffffffffffffffffffffffffffffffffffffffff166002600050600086815260200190815260200160002060009054906101000a900473ffffffffffffffffffffffffffffffffffffffff1673ffffffffffffffffffffffffffffffffffffffff161415156120e35760006000fd5b846002600050600086815260200190815260200160002060006101000a81548173ffffffffffffffffffffffffffffffffffffffff021916908373ffffffffffffffffffffffffffffffffffffffff1602179055506122d4565b6121a9836000600050600087815260200190815260200160002060005060008973ffffffffffffffffffffffffffffffffffffffff1673ffffffffffffffffffffffffffffffffffffffff1681526020019081526020016000206000505461267590919063ffffffff16565b6000600050600086815260200190815260200160002060005060008873ffffffffffffffffffffffffffffffffffffffff1673ffffffffffffffffffffffffffffffffffffffff168152602001908152602001600020600050819090905550612274836000600050600087815260200190815260200160002060005060008873ffffffffffffffffffffffffffffffffffffffff1673ffffffffffffffffffffffffffffffffffffffff1681526020019081526020016000206000505461269390919063ffffffff16565b6000600050600086815260200190815260200160002060005060008773ffffffffffffffffffffffffffffffffffffffff1673ffffffffffffffffffffffffffffffffffffffff1681526020019081526020016000206000508190909055505b8473ffffffffffffffffffffffffffffffffffffffff168673ffffffffffffffffffffffffffffffffffffffff163373ffffffffffffffffffffffffffffffffffffffff167fc3d58168c5ae7397731d063d5bbf3d657854427343f4c083240f7aacaa2d0f628787604051808381526020018281526020019250505060405180910390a461237f8573ffffffffffffffffffffffffffffffffffffffff166126b6909063ffffffff16565b156123dd576123dc338787878787878080601f016020809104026020016040519081016040528093929190818152602001838380828437600081840152601f19601f8201169050808301925050505050505061296a63ffffffff16565b5b5b505050505050565b823373ffffffffffffffffffffffffffffffffffffffff166004600050600083815260200190815260200160002060009054906101000a900473ffffffffffffffffffffffffffffffffffffffff1673ffffffffffffffffffffffffffffffffffffffff161415156124585760006000fd5b61246784611da063ffffffff16565b15156124735760006000fd5b6000600160056000506000878152602001908152602001600020600050540190506124c360056000506000878152602001908152602001600020600050548585905061269390919063ffffffff16565b600560005060008781526020019081526020016000206000508190909055506000600090505b8484905081101561266b576000858583818110151561250457fe5b9050602002013573ffffffffffffffffffffffffffffffffffffffff169050600082840188179050816002600050600083815260200190815260200160002060006101000a81548173ffffffffffffffffffffffffffffffffffffffff021916908373ffffffffffffffffffffffffffffffffffffffff1602179055508173ffffffffffffffffffffffffffffffffffffffff16600073ffffffffffffffffffffffffffffffffffffffff163373ffffffffffffffffffffffffffffffffffffffff167fc3d58168c5ae7397731d063d5bbf3d657854427343f4c083240f7aacaa2d0f62846001604051808381526020018281526020019250505060405180910390a461262e8273ffffffffffffffffffffffffffffffffffffffff166126b6909063ffffffff16565b1561265b5761265a3333848460016040518060200160405280600081526020015061296a63ffffffff16565b5b50505b80600101905080506124e9565b50505b5b50505050565b600082821115151561268357fe5b818303905061268d565b92915050565b6000818301905080508281101515156126a857fe5b8090506126b0565b92915050565b60006000823b9050600081119150506126cb56505b919050565b63bc197c8160e01b7bffffffffffffffffffffffffffffffffffffffffffffffffffffffff19168473ffffffffffffffffffffffffffffffffffffffff1663bc197c8188888787876040518663ffffffff1660e01b8152600401808673ffffffffffffffffffffffffffffffffffffffff1673ffffffffffffffffffffffffffffffffffffffff1681526020018573ffffffffffffffffffffffffffffffffffffffff1673ffffffffffffffffffffffffffffffffffffffff168152602001806020018060200180602001848103845287818151815260200191508051906020019060200280838360005b838110156127d75780820151818401525b6020810190506127bb565b50505050905001848103835286818151815260200191508051906020019060200280838360005b8381101561281a5780820151818401525b6020810190506127fe565b50505050905001848103825285818151815260200191508051906020019080838360005b8381101561285a5780820151818401525b60208101905061283e565b50505050905090810190601f1680156128875780820380516001836020036101000a031916815260200191505b5098505050505050505050602060405180830381600087803b1580156128ad5760006000fd5b505af11580156128c2573d600060003e3d6000fd5b505050506040513d60208110156128d95760006000fd5b81019080805190602001909291905050507bffffffffffffffffffffffffffffffffffffffffffffffffffffffff1916141515612961576040517f08c379a000000000000000000000000000000000000000000000000000000000815260040180806020018281038252603e815260200180612bb0603e913960400191505060405180910390fd5b5b505050505050565b63f23a6e6160e01b7bffffffffffffffffffffffffffffffffffffffffffffffffffffffff19168473ffffffffffffffffffffffffffffffffffffffff1663f23a6e6188888787876040518663ffffffff1660e01b8152600401808673ffffffffffffffffffffffffffffffffffffffff1673ffffffffffffffffffffffffffffffffffffffff1681526020018573ffffffffffffffffffffffffffffffffffffffff1673ffffffffffffffffffffffffffffffffffffffff16815260200184815260200183815260200180602001828103825283818151815260200191508051906020019080838360005b83811015612a725780820151818401525b602081019050612a56565b50505050905090810190601f168015612a9f5780820380516001836020036101000a031916815260200191505b509650505050505050602060405180830381600087803b158015612ac35760006000fd5b505af1158015612ad8573d600060003e3d6000fd5b505050506040513d6020811015612aef5760006000fd5b81019080805190602001909291905050507bffffffffffffffffffffffffffffffffffffffffffffffffffffffff1916141515612b77576040517f08c379a0000000000000000000000000000000000000000000000000000000008152600401808060200182810382526039815260200180612bee6039913960400191505060405180910390fd5b5b50505050505056fe4e656564206f70657261746f7220617070726f76616c20666f7220337264207061727479207472616e73666572732e636f6e74726163742072657475726e656420616e20756e6b6e6f776e2076616c75652066726f6d206f6e4552433131353542617463685265636569766564636f6e74726163742072657475726e656420616e20756e6b6e6f776e2076616c75652066726f6d206f6e455243313135355265636569766564a265627a7a72305820e3a5198f1fcda0b24cd42cd4479f2672e9fffe7a6329b1cb1228459de46e4f3964736f6c634300050a0032",
  "compiler": {
    "name": "solc",
    "version": "0.5.10+commit.5a6ea5b1.Emscripten.clang",
    "optimizer": {},
    "evmVersion": "constantinople"
  }
}