{"fileName":"ERC1155.sol","contractName":"ERC1155","source":"pragma solidity ^0.5.0;\n\nimport \"./SafeMath.sol\";\nimport \"./Address.sol\";\nimport \"./Common.sol\";\nimport \"./IERC1155TokenReceiver.sol\";\nimport \"./IERC1155.sol\";\n\n// A sample implementation of core ERC1155 function.\ncontract ERC1155 is IERC1155, ERC165, CommonConstants\n{\n    using SafeMath for uint256;\n    using Address for address;\n\n    // id => (owner => balance)\n    mapping (uint256 => mapping(address => uint256)) internal balances;\n\n    // owner => (operator => approved)\n    mapping (address => mapping(address => bool)) internal operatorApproval;\n\n/////////////////////////////////////////// ERC165 //////////////////////////////////////////////\n\n    /*\n        bytes4(keccak256('supportsInterface(bytes4)'));\n    */\n    bytes4 constant private INTERFACE_SIGNATURE_ERC165 = 0x01ffc9a7;\n\n    /*\n        bytes4(keccak256(\"safeTransferFrom(address,address,uint256,uint256,bytes)\")) ^\n        bytes4(keccak256(\"safeBatchTransferFrom(address,address,uint256[],uint256[],bytes)\")) ^\n        bytes4(keccak256(\"balanceOf(address,uint256)\")) ^\n        bytes4(keccak256(\"balanceOfBatch(address[],uint256[])\")) ^\n        bytes4(keccak256(\"setApprovalForAll(address,bool)\")) ^\n        bytes4(keccak256(\"isApprovedForAll(address,address)\"));\n    */\n    bytes4 constant private INTERFACE_SIGNATURE_ERC1155 = 0xd9b67a26;\n\n    function supportsInterface(bytes4 _interfaceId)\n    public\n    view\n    returns (bool) {\n         if (_interfaceId == INTERFACE_SIGNATURE_ERC165 ||\n             _interfaceId == INTERFACE_SIGNATURE_ERC1155) {\n            return true;\n         }\n\n         return false;\n    }\n\n/////////////////////////////////////////// ERC1155 //////////////////////////////////////////////\n\n    /**\n        @notice Transfers `_value` amount of an `_id` from the `_from` address to the `_to` address specified (with safety call).\n        @dev Caller must be approved to manage the tokens being transferred out of the `_from` account (see \"Approval\" section of the standard).\n        MUST revert if `_to` is the zero address.\n        MUST revert if balance of holder for token `_id` is lower than the `_value` sent.\n        MUST revert on any other error.\n        MUST emit the `TransferSingle` event to reflect the balance change (see \"Safe Transfer Rules\" section of the standard).\n        After the above conditions are met, this function MUST check if `_to` is a smart contract (e.g. code size > 0). If so, it MUST call `onERC1155Received` on `_to` and act appropriately (see \"Safe Transfer Rules\" section of the standard).\n        @param _from    Source address\n        @param _to      Target address\n        @param _id      ID of the token type\n        @param _value   Transfer amount\n        @param _data    Additional data with no specified format, MUST be sent unaltered in call to `onERC1155Received` on `_to`\n    */\n    function safeTransferFrom(address _from, address _to, uint256 _id, uint256 _value, bytes calldata _data) external {\n\n        require(_to != address(0x0), \"_to must be non-zero.\");\n        require(_from == msg.sender || operatorApproval[_from][msg.sender] == true, \"Need operator approval for 3rd party transfers.\");\n\n        // SafeMath will throw with insuficient funds _from\n        // or if _id is not valid (balance will be 0)\n        balances[_id][_from] = balances[_id][_from].sub(_value);\n        balances[_id][_to]   = _value.add(balances[_id][_to]);\n\n        // MUST emit event\n        emit TransferSingle(msg.sender, _from, _to, _id, _value);\n\n        // Now that the balance is updated and the event was emitted,\n        // call onERC1155Received if the destination is a contract.\n        if (_to.isContract()) {\n            _doSafeTransferAcceptanceCheck(msg.sender, _from, _to, _id, _value, _data);\n        }\n    }\n\n    /**\n        @notice Transfers `_values` amount(s) of `_ids` from the `_from` address to the `_to` address specified (with safety call).\n        @dev Caller must be approved to manage the tokens being transferred out of the `_from` account (see \"Approval\" section of the standard).\n        MUST revert if `_to` is the zero address.\n        MUST revert if length of `_ids` is not the same as length of `_values`.\n        MUST revert if any of the balance(s) of the holder(s) for token(s) in `_ids` is lower than the respective amount(s) in `_values` sent to the recipient.\n        MUST revert on any other error.\n        MUST emit `TransferSingle` or `TransferBatch` event(s) such that all the balance changes are reflected (see \"Safe Transfer Rules\" section of the standard).\n        Balance changes and events MUST follow the ordering of the arrays (_ids[0]/_values[0] before _ids[1]/_values[1], etc).\n        After the above conditions for the transfer(s) in the batch are met, this function MUST check if `_to` is a smart contract (e.g. code size > 0). If so, it MUST call the relevant `ERC1155TokenReceiver` hook(s) on `_to` and act appropriately (see \"Safe Transfer Rules\" section of the standard).\n        @param _from    Source address\n        @param _to      Target address\n        @param _ids     IDs of each token type (order and length must match _values array)\n        @param _values  Transfer amounts per token type (order and length must match _ids array)\n        @param _data    Additional data with no specified format, MUST be sent unaltered in call to the `ERC1155TokenReceiver` hook(s) on `_to`\n    */\n    function safeBatchTransferFrom(address _from, address _to, uint256[] calldata _ids, uint256[] calldata _values, bytes calldata _data) external {\n\n        // MUST Throw on errors\n        require(_to != address(0x0), \"destination address must be non-zero.\");\n        require(_ids.length == _values.length, \"_ids and _values array lenght must match.\");\n        require(_from == msg.sender || operatorApproval[_from][msg.sender] == true, \"Need operator approval for 3rd party transfers.\");\n\n        for (uint256 i = 0; i < _ids.length; ++i) {\n            uint256 id = _ids[i];\n            uint256 value = _values[i];\n\n            // SafeMath will throw with insuficient funds _from\n            // or if _id is not valid (balance will be 0)\n            balances[id][_from] = balances[id][_from].sub(value);\n            balances[id][_to]   = value.add(balances[id][_to]);\n        }\n\n        // Note: instead of the below batch versions of event and acceptance check you MAY have emitted a TransferSingle\n        // event and a subsequent call to _doSafeTransferAcceptanceCheck in above loop for each balance change instead.\n        // Or emitted a TransferSingle event for each in the loop and then the single _doSafeBatchTransferAcceptanceCheck below.\n        // However it is implemented the balance changes and events MUST match when a check (i.e. calling an external contract) is done.\n\n        // MUST emit event\n        emit TransferBatch(msg.sender, _from, _to, _ids, _values);\n\n        // Now that the balances are updated and the events are emitted,\n        // call onERC1155BatchReceived if the destination is a contract.\n        if (_to.isContract()) {\n            _doSafeBatchTransferAcceptanceCheck(msg.sender, _from, _to, _ids, _values, _data);\n        }\n    }\n\n    /**\n        @notice Get the balance of an account's Tokens.\n        @param _owner  The address of the token holder\n        @param _id     ID of the Token\n        @return        The _owner's balance of the Token type requested\n     */\n    function balanceOf(address _owner, uint256 _id) external view returns (uint256) {\n        // The balance of any account can be calculated from the Transfer events history.\n        // However, since we need to keep the balances to validate transfer request,\n        // there is no extra cost to also privide a querry function.\n        return balances[_id][_owner];\n    }\n\n\n    /**\n        @notice Get the balance of multiple account/token pairs\n        @param _owners The addresses of the token holders\n        @param _ids    ID of the Tokens\n        @return        The _owner's balance of the Token types requested (i.e. balance for each (owner, id) pair)\n     */\n    function balanceOfBatch(address[] calldata _owners, uint256[] calldata _ids) external view returns (uint256[] memory) {\n\n        require(_owners.length == _ids.length);\n\n        uint256[] memory balances_ = new uint256[](_owners.length);\n\n        for (uint256 i = 0; i < _owners.length; ++i) {\n            balances_[i] = balances[_ids[i]][_owners[i]];\n        }\n\n        return balances_;\n    }\n\n    /**\n        @notice Enable or disable approval for a third party (\"operator\") to manage all of the caller's tokens.\n        @dev MUST emit the ApprovalForAll event on success.\n        @param _operator  Address to add to the set of authorized operators\n        @param _approved  True if the operator is approved, false to revoke approval\n    */\n    function setApprovalForAll(address _operator, bool _approved) external {\n        operatorApproval[msg.sender][_operator] = _approved;\n        emit ApprovalForAll(msg.sender, _operator, _approved);\n    }\n\n    /**\n        @notice Queries the approval status of an operator for a given owner.\n        @param _owner     The owner of the Tokens\n        @param _operator  Address of authorized operator\n        @return           True if the operator is approved, false if not\n    */\n    function isApprovedForAll(address _owner, address _operator) external view returns (bool) {\n        return operatorApproval[_owner][_operator];\n    }\n\n/////////////////////////////////////////// Internal //////////////////////////////////////////////\n\n    function _doSafeTransferAcceptanceCheck(address _operator, address _from, address _to, uint256 _id, uint256 _value, bytes memory _data) internal {\n\n        // If this was a hybrid standards solution you would have to check ERC165(_to).supportsInterface(0x4e2312e0) here but as this is a pure implementation of an ERC-1155 token set as recommended by\n        // the standard, it is not necessary. The below should revert in all failure cases i.e. _to isn't a receiver, or it is and either returns an unknown value or it reverts in the call to indicate non-acceptance.\n\n\n        // Note: if the below reverts in the onERC1155Received function of the _to address you will have an undefined revert reason returned rather than the one in the require test.\n        // If you want predictable revert reasons consider using low level _to.call() style instead so the revert does not bubble up and you can revert yourself on the ERC1155_ACCEPTED test.\n        require(ERC1155TokenReceiver(_to).onERC1155Received(_operator, _from, _id, _value, _data) == ERC1155_ACCEPTED, \"contract returned an unknown value from onERC1155Received\");\n    }\n\n    function _doSafeBatchTransferAcceptanceCheck(address _operator, address _from, address _to, uint256[] memory _ids, uint256[] memory _values, bytes memory _data) internal {\n\n        // If this was a hybrid standards solution you would have to check ERC165(_to).supportsInterface(0x4e2312e0) here but as this is a pure implementation of an ERC-1155 token set as recommended by\n        // the standard, it is not necessary. The below should revert in all failure cases i.e. _to isn't a receiver, or it is and either returns an unknown value or it reverts in the call to indicate non-acceptance.\n\n        // Note: if the below reverts in the onERC1155BatchReceived function of the _to address you will have an undefined revert reason returned rather than the one in the require test.\n        // If you want predictable revert reasons consider using low level _to.call() style instead so the revert does not bubble up and you can revert yourself on the ERC1155_BATCH_ACCEPTED test.\n        require(ERC1155TokenReceiver(_to).onERC1155BatchReceived(_operator, _from, _ids, _values, _data) == ERC1155_BATCH_ACCEPTED, \"contract returned an unknown value from onERC1155BatchReceived\");\n    }\n}\n","sourcePath":"contracts/erc-1155/contracts/ERC1155.sol","abi":[{"constant":true,"inputs":[{"name":"_owner","type":"address"},{"name":"_id","type":"uint256"}],"name":"balanceOf","outputs":[{"name":"","type":"uint256"}],"payable":false,"stateMutability":"view","type":"function"},{"constant":true,"inputs":[{"name":"_interfaceId","type":"bytes4"}],"name":"supportsInterface","outputs":[{"name":"","type":"bool"}],"payable":false,"stateMutability":"view","type":"function"},{"constant":false,"inputs":[{"name":"_from","type":"address"},{"name":"_to","type":"address"},{"name":"_ids","type":"uint256[]"},{"name":"_values","type":"uint256[]"},{"name":"_data","type":"bytes"}],"name":"safeBatchTransferFrom","outputs":[],"payable":false,"stateMutability":"nonpayable","type":"function"},{"constant":true,"inputs":[{"name":"_owners","type":"address[]"},{"name":"_ids","type":"uint256[]"}],"name":"balanceOfBatch","outputs":[{"name":"","type":"uint256[]"}],"payable":false,"stateMutability":"view","type":"function"},{"constant":false,"inputs":[{"name":"_operator","type":"address"},{"name":"_approved","type":"bool"}],"name":"setApprovalForAll","outputs":[],"payable":false,"stateMutability":"nonpayable","type":"function"},{"constant":true,"inputs":[{"name":"_owner","type":"address"},{"name":"_operator","type":"address"}],"name":"isApprovedForAll","outputs":[{"name":"","type":"bool"}],"payable":false,"stateMutability":"view","type":"function"},{"constant":false,"inputs":[{"name":"_from","type":"address"},{"name":"_to","type":"address"},{"name":"_id","type":"uint256"},{"name":"_value","type":"uint256"},{"name":"_data","type":"bytes"}],"name":"safeTransferFrom","outputs":[],"payable":false,"stateMutability":"nonpayable","type":"function"},{"anonymous":false,"inputs":[{"indexed":true,"name":"_operator","type":"address"},{"indexed":true,"name":"_from","type":"address"},{"indexed":true,"name":"_to","type":"address"},{"indexed":false,"name":"_id","type":"uint256"},{"indexed":false,"name":"_value","type":"uint256"}],"name":"TransferSingle","type":"event"},{"anonymous":false,"inputs":[{"indexed":true,"name":"_operator","type":"address"},{"indexed":true,"name":"_from","type":"address"},{"indexed":true,"name":"_to","type":"address"},{"indexed":false,"name":"_ids","type":"uint256[]"},{"indexed":false,"name":"_values","type":"uint256[]"}],"name":"TransferBatch","type":"event"},{"anonymous":false,"inputs":[{"indexed":true,"name":"_owner","type":"address"},{"indexed":true,"name":"_operator","type":"address"},{"indexed":false,"name":"_approved","type":"bool"}],"name":"ApprovalForAll","type":"event"},{"anonymous":false,"inputs":[{"indexed":false,"name":"_value","type":"string"},{"indexed":true,"name":"_id","type":"uint256"}],"name":"URI","type":"event"}],"bytecode":"0x60806040523480156100115760006000fd5b50610017565b611a23806100266000396000f3fe60806040523480156100115760006000fd5b50600436106100815760003560e01c80634e1273f41161005c5780634e1273f4146102c3578063a22cb465146103f2578063e985e9c514610443578063f242432a146104c057610081565b8062fdd58e1461008757806301ffc9a7146100ea5780632eb2c2d61461015057610081565b60006000fd5b6100d46004803603604081101561009e5760006000fd5b81019080803573ffffffffffffffffffffffffffffffffffffffff16906020019092919080359060200190929190505050610593565b6040518082815260200191505060405180910390f35b610136600480360360208110156101015760006000fd5b8101908080357bffffffffffffffffffffffffffffffffffffffffffffffffffffffff191690602001909291905050506105fc565b604051808215151515815260200191505060405180910390f35b6102c1600480360360a08110156101675760006000fd5b81019080803573ffffffffffffffffffffffffffffffffffffffff169060200190929190803573ffffffffffffffffffffffffffffffffffffffff169060200190929190803590602001906401000000008111156101c55760006000fd5b8201836020820111156101d85760006000fd5b803590602001918460208302840111640100000000831117156101fb5760006000fd5b909192939090919293908035906020019064010000000081111561021f5760006000fd5b8201836020820111156102325760006000fd5b803590602001918460208302840111640100000000831117156102555760006000fd5b90919293909091929390803590602001906401000000008111156102795760006000fd5b82018360208201111561028c5760006000fd5b803590602001918460018302840111640100000000831117156102af5760006000fd5b909192939090919293905050506106b1565b005b61039a600480360360408110156102da5760006000fd5b81019080803590602001906401000000008111156102f85760006000fd5b82018360208201111561030b5760006000fd5b8035906020019184602083028401116401000000008311171561032e5760006000fd5b90919293909091929390803590602001906401000000008111156103525760006000fd5b8201836020820111156103655760006000fd5b803590602001918460208302840111640100000000831117156103885760006000fd5b90919293909091929390505050610c9c565b6040518080602001828103825283818151815260200191508051906020019060200280838360005b838110156103de5780820151818401525b6020810190506103c2565b505050509050019250505060405180910390f35b610441600480360360408110156104095760006000fd5b81019080803573ffffffffffffffffffffffffffffffffffffffff169060200190929190803515159060200190929190505050610dd4565b005b6104a66004803603604081101561045a5760006000fd5b81019080803573ffffffffffffffffffffffffffffffffffffffff169060200190929190803573ffffffffffffffffffffffffffffffffffffffff169060200190929190505050610edc565b604051808215151515815260200191505060405180910390f35b610591600480360360a08110156104d75760006000fd5b81019080803573ffffffffffffffffffffffffffffffffffffffff169060200190929190803573ffffffffffffffffffffffffffffffffffffffff1690602001909291908035906020019092919080359060200190929190803590602001906401000000008111156105495760006000fd5b82018360208201111561055c5760006000fd5b8035906020019184600183028401116401000000008311171561057f5760006000fd5b90919293909091929390505050610f7b565b005b60006000600050600083815260200190815260200160002060005060008473ffffffffffffffffffffffffffffffffffffffff1673ffffffffffffffffffffffffffffffffffffffff1681526020019081526020016000206000505490506105f6565b92915050565b60006301ffc9a760e01b7bffffffffffffffffffffffffffffffffffffffffffffffffffffffff1916827bffffffffffffffffffffffffffffffffffffffffffffffffffffffff19161480610695575063d9b67a2660e01b7bffffffffffffffffffffffffffffffffffffffffffffffffffffffff1916827bffffffffffffffffffffffffffffffffffffffffffffffffffffffff1916145b156106a357600190506106ac565b600090506106ac565b919050565b600073ffffffffffffffffffffffffffffffffffffffff168773ffffffffffffffffffffffffffffffffffffffff1614151515610739576040517f08c379a00000000000000000000000000000000000000000000000000000000081526004018080602001828103825260258152602001806118fb6025913960400191505060405180910390fd5b8383905086869050141515610799576040517f08c379a000000000000000000000000000000000000000000000000000000000815260040180806020018281038252602981526020018061198d6029913960400191505060405180910390fd5b3373ffffffffffffffffffffffffffffffffffffffff168873ffffffffffffffffffffffffffffffffffffffff161480610866575060011515600160005060008a73ffffffffffffffffffffffffffffffffffffffff1673ffffffffffffffffffffffffffffffffffffffff16815260200190815260200160002060005060003373ffffffffffffffffffffffffffffffffffffffff1673ffffffffffffffffffffffffffffffffffffffff16815260200190815260200160002060009054906101000a900460ff161515145b15156108bd576040517f08c379a000000000000000000000000000000000000000000000000000000000815260040180806020018281038252602f815260200180611920602f913960400191505060405180910390fd5b6000600090505b86869050811015610aa757600087878381811015156108df57fe5b905060200201359050600086868481811015156108f857fe5b90506020020135905061096d816000600050600085815260200190815260200160002060005060008e73ffffffffffffffffffffffffffffffffffffffff1673ffffffffffffffffffffffffffffffffffffffff168152602001908152602001600020600050546113ef90919063ffffffff16565b6000600050600084815260200190815260200160002060005060008d73ffffffffffffffffffffffffffffffffffffffff1673ffffffffffffffffffffffffffffffffffffffff168152602001908152602001600020600050819090905550610a386000600050600084815260200190815260200160002060005060008c73ffffffffffffffffffffffffffffffffffffffff1673ffffffffffffffffffffffffffffffffffffffff168152602001908152602001600020600050548261140d90919063ffffffff16565b6000600050600084815260200190815260200160002060005060008c73ffffffffffffffffffffffffffffffffffffffff1673ffffffffffffffffffffffffffffffffffffffff16815260200190815260200160002060005081909090555050505b80600101905080506108c4565b508673ffffffffffffffffffffffffffffffffffffffff168873ffffffffffffffffffffffffffffffffffffffff163373ffffffffffffffffffffffffffffffffffffffff167f4a39dc06d4c0dbc64b70af90fd698a233a518aa5d07e595d983b8c0526c8f7fb898989896040518080602001806020018381038352878782818152602001925060200280828437600081840152601f19601f8201169050808301925050508381038252858582818152602001925060200280828437600081840152601f19601f820116905080830192505050965050505050505060405180910390a4610bb18773ffffffffffffffffffffffffffffffffffffffff16611430909063ffffffff16565b15610c9157610c90338989898980806020026020016040519081016040528093929190818152602001838360200280828437600081840152601f19601f82011690508083019250505050505050888880806020026020016040519081016040528093929190818152602001838360200280828437600081840152601f19601f8201169050808301925050505050505087878080601f016020809104026020016040519081016040528093929190818152602001838380828437600081840152601f19601f8201169050808301925050505050505061144a63ffffffff16565b5b5b5050505050505050565b60608282905085859050141515610cb35760006000fd5b606085859050604051908082528060200260200182016040528015610ce75781602001602082028038833980820191505090505b5090506000600090505b86869050811015610dc157600060005060008686848181101515610d1157fe5b90506020020135815260200190815260200160002060005060008888848181101515610d3957fe5b9050602002013573ffffffffffffffffffffffffffffffffffffffff1673ffffffffffffffffffffffffffffffffffffffff1673ffffffffffffffffffffffffffffffffffffffff168152602001908152602001600020600050548282815181101515610da257fe5b60200260200101909081815260200150505b8060010190508050610cf1565b5080915050610dcc56505b949350505050565b80600160005060003373ffffffffffffffffffffffffffffffffffffffff1673ffffffffffffffffffffffffffffffffffffffff16815260200190815260200160002060005060008473ffffffffffffffffffffffffffffffffffffffff1673ffffffffffffffffffffffffffffffffffffffff16815260200190815260200160002060006101000a81548160ff0219169083151502179055508173ffffffffffffffffffffffffffffffffffffffff163373ffffffffffffffffffffffffffffffffffffffff167f17307eab39ab6107e8899845ad3d59bd9653f200f220920489ca2b5937696c3183604051808215151515815260200191505060405180910390a35b5050565b6000600160005060008473ffffffffffffffffffffffffffffffffffffffff1673ffffffffffffffffffffffffffffffffffffffff16815260200190815260200160002060005060008373ffffffffffffffffffffffffffffffffffffffff1673ffffffffffffffffffffffffffffffffffffffff16815260200190815260200160002060009054906101000a900460ff169050610f75565b92915050565b600073ffffffffffffffffffffffffffffffffffffffff168573ffffffffffffffffffffffffffffffffffffffff1614151515611023576040517f08c379a00000000000000000000000000000000000000000000000000000000081526004018080602001828103825260158152602001807f5f746f206d757374206265206e6f6e2d7a65726f2e000000000000000000000081526020015060200191505060405180910390fd5b3373ffffffffffffffffffffffffffffffffffffffff168673ffffffffffffffffffffffffffffffffffffffff1614806110f0575060011515600160005060008873ffffffffffffffffffffffffffffffffffffffff1673ffffffffffffffffffffffffffffffffffffffff16815260200190815260200160002060005060003373ffffffffffffffffffffffffffffffffffffffff1673ffffffffffffffffffffffffffffffffffffffff16815260200190815260200160002060009054906101000a900460ff161515145b1515611147576040517f08c379a000000000000000000000000000000000000000000000000000000000815260040180806020018281038252602f815260200180611920602f913960400191505060405180910390fd5b6111b3836000600050600087815260200190815260200160002060005060008973ffffffffffffffffffffffffffffffffffffffff1673ffffffffffffffffffffffffffffffffffffffff168152602001908152602001600020600050546113ef90919063ffffffff16565b6000600050600086815260200190815260200160002060005060008873ffffffffffffffffffffffffffffffffffffffff1673ffffffffffffffffffffffffffffffffffffffff16815260200190815260200160002060005081909090555061127e6000600050600086815260200190815260200160002060005060008773ffffffffffffffffffffffffffffffffffffffff1673ffffffffffffffffffffffffffffffffffffffff168152602001908152602001600020600050548461140d90919063ffffffff16565b6000600050600086815260200190815260200160002060005060008773ffffffffffffffffffffffffffffffffffffffff1673ffffffffffffffffffffffffffffffffffffffff1681526020019081526020016000206000508190909055508473ffffffffffffffffffffffffffffffffffffffff168673ffffffffffffffffffffffffffffffffffffffff163373ffffffffffffffffffffffffffffffffffffffff167fc3d58168c5ae7397731d063d5bbf3d657854427343f4c083240f7aacaa2d0f628787604051808381526020018281526020019250505060405180910390a46113888573ffffffffffffffffffffffffffffffffffffffff16611430909063ffffffff16565b156113e6576113e5338787878787878080601f016020809104026020016040519081016040528093929190818152602001838380828437600081840152601f19601f820116905080830192505050505050506116e463ffffffff16565b5b5b505050505050565b60008282111515156113fd57fe5b8183039050611407565b92915050565b60008183019050805082811015151561142257fe5b80905061142a565b92915050565b60006000823b90506000811191505061144556505b919050565b63bc197c8160e01b7bffffffffffffffffffffffffffffffffffffffffffffffffffffffff19168473ffffffffffffffffffffffffffffffffffffffff1663bc197c8188888787876040518663ffffffff1660e01b8152600401808673ffffffffffffffffffffffffffffffffffffffff1673ffffffffffffffffffffffffffffffffffffffff1681526020018573ffffffffffffffffffffffffffffffffffffffff1673ffffffffffffffffffffffffffffffffffffffff168152602001806020018060200180602001848103845287818151815260200191508051906020019060200280838360005b838110156115515780820151818401525b602081019050611535565b50505050905001848103835286818151815260200191508051906020019060200280838360005b838110156115945780820151818401525b602081019050611578565b50505050905001848103825285818151815260200191508051906020019080838360005b838110156115d45780820151818401525b6020810190506115b8565b50505050905090810190601f1680156116015780820380516001836020036101000a031916815260200191505b5098505050505050505050602060405180830381600087803b1580156116275760006000fd5b505af115801561163c573d600060003e3d6000fd5b505050506040513d60208110156116535760006000fd5b81019080805190602001909291905050507bffffffffffffffffffffffffffffffffffffffffffffffffffffffff19161415156116db576040517f08c379a000000000000000000000000000000000000000000000000000000000815260040180806020018281038252603e81526020018061194f603e913960400191505060405180910390fd5b5b505050505050565b63f23a6e6160e01b7bffffffffffffffffffffffffffffffffffffffffffffffffffffffff19168473ffffffffffffffffffffffffffffffffffffffff1663f23a6e6188888787876040518663ffffffff1660e01b8152600401808673ffffffffffffffffffffffffffffffffffffffff1673ffffffffffffffffffffffffffffffffffffffff1681526020018573ffffffffffffffffffffffffffffffffffffffff1673ffffffffffffffffffffffffffffffffffffffff16815260200184815260200183815260200180602001828103825283818151815260200191508051906020019080838360005b838110156117ec5780820151818401525b6020810190506117d0565b50505050905090810190601f1680156118195780820380516001836020036101000a031916815260200191505b509650505050505050602060405180830381600087803b15801561183d5760006000fd5b505af1158015611852573d600060003e3d6000fd5b505050506040513d60208110156118695760006000fd5b81019080805190602001909291905050507bffffffffffffffffffffffffffffffffffffffffffffffffffffffff19161415156118f1576040517f08c379a00000000000000000000000000000000000000000000000000000000081526004018080602001828103825260398152602001806119b66039913960400191505060405180910390fd5b5b50505050505056fe64657374696e6174696f6e2061646472657373206d757374206265206e6f6e2d7a65726f2e4e656564206f70657261746f7220617070726f76616c20666f7220337264207061727479207472616e73666572732e636f6e74726163742072657475726e656420616e20756e6b6e6f776e2076616c75652066726f6d206f6e45524331313535426174636852656365697665645f69647320616e64205f76616c756573206172726179206c656e676874206d757374206d617463682e636f6e74726163742072657475726e656420616e20756e6b6e6f776e2076616c75652066726f6d206f6e455243313135355265636569766564a265627a7a7230582084a1f71555b58298228b4f320e899b993dded7f9b0e6846c1fd0a85729bd385c64736f6c634300050a0032","compiler":{"name":"solc","version":"0.5.10+commit.5a6ea5b1.Emscripten.clang","optimizer":{},"evmVersion":"constantinople"}}