{"fileName":"ERCXXXXReceiverDelegate.sol","contractName":"ERCXXXXReceiverDelegate","source":"pragma solidity ^0.5.0;\n\nimport \"./DelegatesStorage.sol\";\n\n///////////////////////////////////////////////////////////////////////////////////////////////////\n/**\n * @title ERCXXXXReceiverDelegate\n * @dev Contract to test safe transfer behavior via proxy with future standard delegate.\n */\n///////////////////////////////////////////////////////////////////////////////////////////////////\n\ncontract ERCXXXXReceiverDelegate is ProxyReceiverStorage_002_ERCXXXXFuture {\n\n    bytes4 constant public ERCXXXX_RECEIVED = 0x1234AAAA;\n    bytes4 constant public ERCXXXX_BATCH_RECEIVED = 0x4321BBBB;\n    bytes4 constant public NOT_ERCXXXX_RECEIVED = 0xDEADF00D; // Some random value\n\n    function setShouldRejectClash(bool _value) external {\n        require(address(this) == proxy, \"Direct call: setShouldRejectClash\");\n\n        shouldReject = _value;\n    }\n\n    function setShouldRejectXXXX(bool _value) external {\n        require(address(this) == proxy, \"Direct call: setShouldRejectXXXX\");\n\n        shouldRejectXXXX = _value;\n    }\n\n    function onERCXXXXReceived(address _operator, address _from, uint256 _id, uint256 _value, bytes calldata _data) external view returns(bytes4) {\n        (_operator); (_from); (_id); (_value); (_data);  // solidity, be quiet please\n\n        require(address(this) == proxy, \"Direct call: onERCXXXXReceived\");\n\n        if (shouldRejectXXXX == true) {\n            return NOT_ERCXXXX_RECEIVED;\n        } else {\n            return ERCXXXX_RECEIVED;\n        }\n    }\n\n    function onERCXXXXBatchReceived(address _operator, address _from, uint256[] calldata _ids, uint256[] calldata _values, bytes calldata _data) external view returns(bytes4) {\n        (_operator); (_from); (_ids); (_values); (_data);  // solidity, be quiet please\n\n        require(address(this) == proxy, \"Direct call: onERCXXXXBatchReceived\");\n\n        if (shouldRejectXXXX == true) {\n            return NOT_ERCXXXX_RECEIVED;\n        } else {\n            return ERCXXXX_BATCH_RECEIVED;\n        }\n    }\n}\n","sourcePath":"contracts/erc-1155/contracts/ProxyReceiver/Delegates/ERCXXXXReceiverDelegate.sol","abi":[{"constant":true,"inputs":[],"name":"shouldReject","outputs":[{"name":"","type":"bool"}],"payable":false,"stateMutability":"view","type":"function"},{"constant":false,"inputs":[{"name":"_value","type":"bool"}],"name":"setShouldRejectClash","outputs":[],"payable":false,"stateMutability":"nonpayable","type":"function"},{"constant":false,"inputs":[{"name":"_value","type":"bool"}],"name":"setShouldRejectXXXX","outputs":[],"payable":false,"stateMutability":"nonpayable","type":"function"},{"constant":true,"inputs":[],"name":"shouldRejectXXXX","outputs":[{"name":"","type":"bool"}],"payable":false,"stateMutability":"view","type":"function"},{"constant":true,"inputs":[{"name":"","type":"bytes4"}],"name":"delegates","outputs":[{"name":"","type":"address"}],"payable":false,"stateMutability":"view","type":"function"},{"constant":true,"inputs":[],"name":"NOT_ERCXXXX_RECEIVED","outputs":[{"name":"","type":"bytes4"}],"payable":false,"stateMutability":"view","type":"function"},{"constant":true,"inputs":[],"name":"ERCXXXX_RECEIVED","outputs":[{"name":"","type":"bytes4"}],"payable":false,"stateMutability":"view","type":"function"},{"constant":true,"inputs":[{"name":"_operator","type":"address"},{"name":"_from","type":"address"},{"name":"_ids","type":"uint256[]"},{"name":"_values","type":"uint256[]"},{"name":"_data","type":"bytes"}],"name":"onERCXXXXBatchReceived","outputs":[{"name":"","type":"bytes4"}],"payable":false,"stateMutability":"view","type":"function"},{"constant":true,"inputs":[{"name":"_operator","type":"address"},{"name":"_from","type":"address"},{"name":"_id","type":"uint256"},{"name":"_value","type":"uint256"},{"name":"_data","type":"bytes"}],"name":"onERCXXXXReceived","outputs":[{"name":"","type":"bytes4"}],"payable":false,"stateMutability":"view","type":"function"},{"constant":true,"inputs":[],"name":"ERCXXXX_BATCH_RECEIVED","outputs":[{"name":"","type":"bytes4"}],"payable":false,"stateMutability":"view","type":"function"}],"bytecode":"0x60806040523480156100115760006000fd5b50610017565b610aa3806100266000396000f3fe60806040523480156100115760006000fd5b50600436106100a35760003560e01c8063b689697f11610067578063b689697f146101dd578063b766c37914610239578063e9e5be6a14610295578063eb510be81461045a578063ffbd487d1461057f576100a3565b80631dbb9381146100a95780632090dd24146100cb57806380f5fe74146100fc57806391ad57bd1461012d578063a0a2daf01461014f576100a3565b60006000fd5b6100b16105db565b604051808215151515815260200191505060405180910390f35b6100fa600480360360208110156100e25760006000fd5b810190808035151590602001909291905050506105ee565b005b61012b600480360360208110156101135760006000fd5b810190808035151590602001909291905050506106b4565b005b61013561079a565b604051808215151515815260200191505060405180910390f35b61019b600480360360208110156101665760006000fd5b8101908080357bffffffffffffffffffffffffffffffffffffffffffffffffffffffff191690602001909291905050506107ad565b604051808273ffffffffffffffffffffffffffffffffffffffff1673ffffffffffffffffffffffffffffffffffffffff16815260200191505060405180910390f35b6101e56107e5565b60405180827bffffffffffffffffffffffffffffffffffffffffffffffffffffffff19167bffffffffffffffffffffffffffffffffffffffffffffffffffffffff1916815260200191505060405180910390f35b6102416107f0565b60405180827bffffffffffffffffffffffffffffffffffffffffffffffffffffffff19167bffffffffffffffffffffffffffffffffffffffffffffffffffffffff1916815260200191505060405180910390f35b610406600480360360a08110156102ac5760006000fd5b81019080803573ffffffffffffffffffffffffffffffffffffffff169060200190929190803573ffffffffffffffffffffffffffffffffffffffff1690602001909291908035906020019064010000000081111561030a5760006000fd5b82018360208201111561031d5760006000fd5b803590602001918460208302840111640100000000831117156103405760006000fd5b90919293909091929390803590602001906401000000008111156103645760006000fd5b8201836020820111156103775760006000fd5b8035906020019184602083028401116401000000008311171561039a5760006000fd5b90919293909091929390803590602001906401000000008111156103be5760006000fd5b8201836020820111156103d15760006000fd5b803590602001918460018302840111640100000000831117156103f45760006000fd5b909192939090919293905050506107fb565b60405180827bffffffffffffffffffffffffffffffffffffffffffffffffffffffff19167bffffffffffffffffffffffffffffffffffffffffffffffffffffffff1916815260200191505060405180910390f35b61052b600480360360a08110156104715760006000fd5b81019080803573ffffffffffffffffffffffffffffffffffffffff169060200190929190803573ffffffffffffffffffffffffffffffffffffffff1690602001909291908035906020019092919080359060200190929190803590602001906401000000008111156104e35760006000fd5b8201836020820111156104f65760006000fd5b803590602001918460018302840111640100000000831117156105195760006000fd5b90919293909091929390505050610900565b60405180827bffffffffffffffffffffffffffffffffffffffffffffffffffffffff19167bffffffffffffffffffffffffffffffffffffffffffffffffffffffff1916815260200191505060405180910390f35b610587610a1f565b60405180827bffffffffffffffffffffffffffffffffffffffffffffffffffffffff19167bffffffffffffffffffffffffffffffffffffffffffffffffffffffff1916815260200191505060405180910390f35b600360149054906101000a900460ff1681565b600360009054906101000a900473ffffffffffffffffffffffffffffffffffffffff1673ffffffffffffffffffffffffffffffffffffffff163073ffffffffffffffffffffffffffffffffffffffff16141515610696576040517f08c379a0000000000000000000000000000000000000000000000000000000008152600401808060200182810382526021815260200180610a2b6021913960400191505060405180910390fd5b80600360146101000a81548160ff0219169083151502179055505b50565b600360009054906101000a900473ffffffffffffffffffffffffffffffffffffffff1673ffffffffffffffffffffffffffffffffffffffff163073ffffffffffffffffffffffffffffffffffffffff1614151561077c576040517f08c379a00000000000000000000000000000000000000000000000000000000081526004018080602001828103825260208152602001807f4469726563742063616c6c3a2073657453686f756c6452656a6563745858585881526020015060200191505060405180910390fd5b80600360156101000a81548160ff0219169083151502179055505b50565b600360159054906101000a900460ff1681565b600060005060205280600052604060002060009150909054906101000a900473ffffffffffffffffffffffffffffffffffffffff1681565b63deadf00d60e01b81565b631234aaaa60e01b81565b600088508750868650508484505082825050600360009054906101000a900473ffffffffffffffffffffffffffffffffffffffff1673ffffffffffffffffffffffffffffffffffffffff163073ffffffffffffffffffffffffffffffffffffffff161415156108b5576040517f08c379a0000000000000000000000000000000000000000000000000000000008152600401808060200182810382526023815260200180610a4c6023913960400191505060405180910390fd5b60011515600360159054906101000a900460ff16151514156108e45763deadf00d60e01b90506108f4566108f3565b634321bbbb60e01b90506108f4565b5b98975050505050505050565b6000865085508450835082825050600360009054906101000a900473ffffffffffffffffffffffffffffffffffffffff1673ffffffffffffffffffffffffffffffffffffffff163073ffffffffffffffffffffffffffffffffffffffff161415156109d6576040517f08c379a000000000000000000000000000000000000000000000000000000000815260040180806020018281038252601e8152602001807f4469726563742063616c6c3a206f6e455243585858585265636569766564000081526020015060200191505060405180910390fd5b60011515600360159054906101000a900460ff1615151415610a055763deadf00d60e01b9050610a1556610a14565b631234aaaa60e01b9050610a15565b5b9695505050505050565b634321bbbb60e01b8156fe4469726563742063616c6c3a2073657453686f756c6452656a656374436c6173684469726563742063616c6c3a206f6e4552435858585842617463685265636569766564a265627a7a7230582041e4adf867a0c89f9e7a6fde5e3f2ff838ba070b3db06f8ec32c7cc46daef31764736f6c634300050a0032","compiler":{"name":"solc","version":"0.5.10+commit.5a6ea5b1.Emscripten.clang","optimizer":{},"evmVersion":"constantinople"}}