{"fileName":"Polygoons.sol","contractName":"Polygoons","source":"pragma solidity ^0.5.0;\n\nimport \"zos-lib/contracts/Initializable.sol\";\nimport './erc-1155/contracts/ERC1155Mintable.sol';\n\ncontract Polygoons is Initializable {\n\n    struct Goon {\n        uint256 tokenId;\n        string metadataUri;\n    }\n\n    ERC1155Mintable public token;\n    bool private initialized;\n\n    Goon[] goons;\n    mapping (uint256 => address) public goonIndexToOwner;\n\n    function initialize() initializer public {\n        // require(!initialized);\n        token = new ERC1155Mintable();\n        _createPolygoon(\"0th GOON\");\n        initialized = true;\n    }\n\n    function _createPolygoon(string memory _uri) public returns (uint) {\n        uint256 _tokenId = token.create(1, _uri);\n\n        Goon memory _goon = Goon({\n           tokenId: _tokenId,\n           metadataUri: _uri\n        });\n\n        uint256 newGoonId = goons.push(_goon) - 1;\n        goonIndexToOwner[newGoonId] = msg.sender;\n        return newGoonId;\n    }\n}","sourcePath":"contracts/Polygoons.sol","abi":[{"constant":true,"inputs":[{"name":"","type":"uint256"}],"name":"goonIndexToOwner","outputs":[{"name":"","type":"address"}],"payable":false,"stateMutability":"view","type":"function"},{"constant":false,"inputs":[],"name":"initialize","outputs":[],"payable":false,"stateMutability":"nonpayable","type":"function"},{"constant":false,"inputs":[{"name":"_uri","type":"string"}],"name":"_createPolygoon","outputs":[{"name":"","type":"uint256"}],"payable":false,"stateMutability":"nonpayable","type":"function"},{"constant":true,"inputs":[],"name":"token","outputs":[{"name":"","type":"address"}],"payable":false,"stateMutability":"view","type":"function"}],"bytecode":"0x60806040523480156100115760006000fd5b50610017565b612a8d806100266000396000f3fe60806040523480156100115760006000fd5b50600436106100515760003560e01c8063306408d6146100575780638129fc1c146100c65780638255cf69146100d0578063fc0c546a146101a757610051565b60006000fd5b6100846004803603602081101561006e5760006000fd5b81019080803590602001909291905050506101f1565b604051808273ffffffffffffffffffffffffffffffffffffffff1673ffffffffffffffffffffffffffffffffffffffff16815260200191505060405180910390f35b6100ce610229565b005b610191600480360360208110156100e75760006000fd5b81019080803590602001906401000000008111156101055760006000fd5b8201836020820111156101185760006000fd5b8035906020019184600183028401116401000000008311171561013b5760006000fd5b91908080601f016020809104026020016040519081016040528093929190818152602001838380828437600081840152601f19601f820116905080830192505050505050509090919290909192905050506103f3565b6040518082815260200191505060405180910390f35b6101af61060f565b604051808273ffffffffffffffffffffffffffffffffffffffff1673ffffffffffffffffffffffffffffffffffffffff16815260200191505060405180910390f35b603560005060205280600052604060002060009150909054906101000a900473ffffffffffffffffffffffffffffffffffffffff1681565b600060019054906101000a900460ff168061024e575061024d61063563ffffffff16565b5b806102665750600060009054906101000a900460ff16155b15156102bd576040517f08c379a000000000000000000000000000000000000000000000000000000000815260040180806020018281038252602e815260200180612a2b602e913960400191505060405180910390fd5b6000600060019054906101000a900460ff1690506001600060016101000a81548160ff0219169083151502179055506001600060006101000a81548160ff0219169083151502179055506040516103139061064d565b604051809103906000f080158015610330573d600060003e3d6000fd5b50603360006101000a81548173ffffffffffffffffffffffffffffffffffffffff021916908373ffffffffffffffffffffffffffffffffffffffff1602179055506103b86040518060400160405280600881526020017f30746820474f4f4e0000000000000000000000000000000000000000000000008152602001506103f363ffffffff16565b506001603360146101000a81548160ff0219169083151502179055505b80600060016101000a81548160ff021916908315150217905550505b565b60006000603360009054906101000a900473ffffffffffffffffffffffffffffffffffffffff1673ffffffffffffffffffffffffffffffffffffffff16630118fa496001856040518363ffffffff1660e01b81526004018083815260200180602001828103825283818151815260200191508051906020019080838360005b8381101561048e5780820151818401525b602081019050610472565b50505050905090810190601f1680156104bb5780820380516001836020036101000a031916815260200191505b509350505050602060405180830381600087803b1580156104dc5760006000fd5b505af11580156104f1573d600060003e3d6000fd5b505050506040513d60208110156105085760006000fd5b8101908080519060200190929190505050905061052361065a565b60405180604001604052808381526020018581526020015090506000600160346000508390806001815401808255809150509060018203906000526020600020906002020160005b909192909190915060008201518160000160005090905560208201518160010160005090805190602001906105a1929190610677565b505050039050336035600050600083815260200190815260200160002060006101000a81548173ffffffffffffffffffffffffffffffffffffffff021916908373ffffffffffffffffffffffffffffffffffffffff16021790555080935050505061060a565050505b919050565b603360009054906101000a900473ffffffffffffffffffffffffffffffffffffffff1681565b60006000303b90506000811491505061064a56505b90565b6123038061072883390190565b604051806040016040528060008152602001606081526020015090565b828054600181600116156101000203166002900490600052602060002090601f016020900481019282601f106106b857805160ff19168380011785556106eb565b828001600101855582156106eb579182015b828111156106ea57825182600050909055916020019190600101906106ca565b5b5090506106f891906106fc565b5090565b6107249190610706565b808211156107205760008181506000905550600101610706565b5090565b9056fe60806040523480156100115760006000fd5b50610017565b6122dd806100266000396000f3fe60806040523480156100115760006000fd5b50600436106100b85760003560e01c8063a22cb46511610072578063a22cb4651461054f578063affed0e0146105a0578063cd53d08e146105be578063cfa84fc11461062d578063e985e9c514610710578063f242432a1461078d576100b8565b8062fdd58e146100be5780630118fa491461012157806301ffc9a7146101be5780632eb2c2d6146102245780634e1273f41461039757806367db3b8f146104c6576100b8565b60006000fd5b61010b600480360360408110156100d55760006000fd5b81019080803573ffffffffffffffffffffffffffffffffffffffff16906020019092919080359060200190929190505050610860565b6040518082815260200191505060405180910390f35b6101a8600480360360408110156101385760006000fd5b8101908080359060200190929190803590602001906401000000008111156101605760006000fd5b8201836020820111156101735760006000fd5b803590602001918460018302840111640100000000831117156101965760006000fd5b909192939090919293905050506108c9565b6040518082815260200191505060405180910390f35b61020a600480360360208110156101d55760006000fd5b8101908080357bffffffffffffffffffffffffffffffffffffffffffffffffffffffff19169060200190929190505050610a95565b604051808215151515815260200191505060405180910390f35b610395600480360360a081101561023b5760006000fd5b81019080803573ffffffffffffffffffffffffffffffffffffffff169060200190929190803573ffffffffffffffffffffffffffffffffffffffff169060200190929190803590602001906401000000008111156102995760006000fd5b8201836020820111156102ac5760006000fd5b803590602001918460208302840111640100000000831117156102cf5760006000fd5b90919293909091929390803590602001906401000000008111156102f35760006000fd5b8201836020820111156103065760006000fd5b803590602001918460208302840111640100000000831117156103295760006000fd5b909192939090919293908035906020019064010000000081111561034d5760006000fd5b8201836020820111156103605760006000fd5b803590602001918460018302840111640100000000831117156103835760006000fd5b90919293909091929390505050610b0d565b005b61046e600480360360408110156103ae5760006000fd5b81019080803590602001906401000000008111156103cc5760006000fd5b8201836020820111156103df5760006000fd5b803590602001918460208302840111640100000000831117156104025760006000fd5b90919293909091929390803590602001906401000000008111156104265760006000fd5b8201836020820111156104395760006000fd5b8035906020019184602083028401116401000000008311171561045c5760006000fd5b909192939090919293905050506110f8565b6040518080602001828103825283818151815260200191508051906020019060200280838360005b838110156104b25780820151818401525b602081019050610496565b505050509050019250505060405180910390f35b61054d600480360360408110156104dd5760006000fd5b81019080803590602001906401000000008111156104fb5760006000fd5b82018360208201111561050e5760006000fd5b803590602001918460018302840111640100000000831117156105315760006000fd5b9091929390909192939080359060200190929190505050611230565b005b61059e600480360360408110156105665760006000fd5b81019080803573ffffffffffffffffffffffffffffffffffffffff16906020019092919080351515906020019092919050505061130e565b005b6105a8611416565b6040518082815260200191505060405180910390f35b6105eb600480360360208110156105d55760006000fd5b810190808035906020019092919050505061141f565b604051808273ffffffffffffffffffffffffffffffffffffffff1673ffffffffffffffffffffffffffffffffffffffff16815260200191505060405180910390f35b61070e600480360360608110156106445760006000fd5b81019080803590602001909291908035906020019064010000000081111561066c5760006000fd5b82018360208201111561067f5760006000fd5b803590602001918460208302840111640100000000831117156106a25760006000fd5b90919293909091929390803590602001906401000000008111156106c65760006000fd5b8201836020820111156106d95760006000fd5b803590602001918460208302840111640100000000831117156106fc5760006000fd5b90919293909091929390505050611457565b005b610773600480360360408110156107275760006000fd5b81019080803573ffffffffffffffffffffffffffffffffffffffff169060200190929190803573ffffffffffffffffffffffffffffffffffffffff1690602001909291905050506116e1565b604051808215151515815260200191505060405180910390f35b61085e600480360360a08110156107a45760006000fd5b81019080803573ffffffffffffffffffffffffffffffffffffffff169060200190929190803573ffffffffffffffffffffffffffffffffffffffff1690602001909291908035906020019092919080359060200190929190803590602001906401000000008111156108165760006000fd5b8201836020820111156108295760006000fd5b8035906020019184600183028401116401000000008311171561084c5760006000fd5b90919293909091929390505050611780565b005b60006000600050600083815260200190815260200160002060005060008473ffffffffffffffffffffffffffffffffffffffff1673ffffffffffffffffffffffffffffffffffffffff1681526020019081526020016000206000505490506108c3565b92915050565b60006003600081815054600101919050819090905590508050336002600050600083815260200190815260200160002060006101000a81548173ffffffffffffffffffffffffffffffffffffffff021916908373ffffffffffffffffffffffffffffffffffffffff160217905550836000600050600083815260200190815260200160002060005060003373ffffffffffffffffffffffffffffffffffffffff1673ffffffffffffffffffffffffffffffffffffffff1681526020019081526020016000206000508190909055503373ffffffffffffffffffffffffffffffffffffffff16600073ffffffffffffffffffffffffffffffffffffffff163373ffffffffffffffffffffffffffffffffffffffff167fc3d58168c5ae7397731d063d5bbf3d657854427343f4c083240f7aacaa2d0f628488604051808381526020018281526020019250505060405180910390a46000838390501115610a8d57807f6bb7ff708619ba0610cba295a58592e0451dee2622938c8755667688daf3529b848460405180806020018281038252848482818152602001925080828437600081840152601f19601f820116905080830192505050935050505060405180910390a25b5b9392505050565b6000630e89341c60e01b7bffffffffffffffffffffffffffffffffffffffffffffffffffffffff1916827bffffffffffffffffffffffffffffffffffffffffffffffffffffffff19161415610af15760019050610b0856610b07565b610b0082611bf463ffffffff16565b9050610b08565b5b919050565b600073ffffffffffffffffffffffffffffffffffffffff168773ffffffffffffffffffffffffffffffffffffffff1614151515610b95576040517f08c379a00000000000000000000000000000000000000000000000000000000081526004018080602001828103825260258152602001806121b56025913960400191505060405180910390fd5b8383905086869050141515610bf5576040517f08c379a00000000000000000000000000000000000000000000000000000000081526004018080602001828103825260298152602001806122476029913960400191505060405180910390fd5b3373ffffffffffffffffffffffffffffffffffffffff168873ffffffffffffffffffffffffffffffffffffffff161480610cc2575060011515600160005060008a73ffffffffffffffffffffffffffffffffffffffff1673ffffffffffffffffffffffffffffffffffffffff16815260200190815260200160002060005060003373ffffffffffffffffffffffffffffffffffffffff1673ffffffffffffffffffffffffffffffffffffffff16815260200190815260200160002060009054906101000a900460ff161515145b1515610d19576040517f08c379a000000000000000000000000000000000000000000000000000000000815260040180806020018281038252602f8152602001806121da602f913960400191505060405180910390fd5b6000600090505b86869050811015610f035760008787838181101515610d3b57fe5b90506020020135905060008686848181101515610d5457fe5b905060200201359050610dc9816000600050600085815260200190815260200160002060005060008e73ffffffffffffffffffffffffffffffffffffffff1673ffffffffffffffffffffffffffffffffffffffff16815260200190815260200160002060005054611ca990919063ffffffff16565b6000600050600084815260200190815260200160002060005060008d73ffffffffffffffffffffffffffffffffffffffff1673ffffffffffffffffffffffffffffffffffffffff168152602001908152602001600020600050819090905550610e946000600050600084815260200190815260200160002060005060008c73ffffffffffffffffffffffffffffffffffffffff1673ffffffffffffffffffffffffffffffffffffffff1681526020019081526020016000206000505482611cc790919063ffffffff16565b6000600050600084815260200190815260200160002060005060008c73ffffffffffffffffffffffffffffffffffffffff1673ffffffffffffffffffffffffffffffffffffffff16815260200190815260200160002060005081909090555050505b8060010190508050610d20565b508673ffffffffffffffffffffffffffffffffffffffff168873ffffffffffffffffffffffffffffffffffffffff163373ffffffffffffffffffffffffffffffffffffffff167f4a39dc06d4c0dbc64b70af90fd698a233a518aa5d07e595d983b8c0526c8f7fb898989896040518080602001806020018381038352878782818152602001925060200280828437600081840152601f19601f8201169050808301925050508381038252858582818152602001925060200280828437600081840152601f19601f820116905080830192505050965050505050505060405180910390a461100d8773ffffffffffffffffffffffffffffffffffffffff16611cea909063ffffffff16565b156110ed576110ec338989898980806020026020016040519081016040528093929190818152602001838360200280828437600081840152601f19601f82011690508083019250505050505050888880806020026020016040519081016040528093929190818152602001838360200280828437600081840152601f19601f8201169050808301925050505050505087878080601f016020809104026020016040519081016040528093929190818152602001838380828437600081840152601f19601f82011690508083019250505050505050611d0463ffffffff16565b5b5b5050505050505050565b6060828290508585905014151561110f5760006000fd5b6060858590506040519080825280602002602001820160405280156111435781602001602082028038833980820191505090505b5090506000600090505b8686905081101561121d5760006000506000868684818110151561116d57fe5b9050602002013581526020019081526020016000206000506000888884818110151561119557fe5b9050602002013573ffffffffffffffffffffffffffffffffffffffff1673ffffffffffffffffffffffffffffffffffffffff1673ffffffffffffffffffffffffffffffffffffffff1681526020019081526020016000206000505482828151811015156111fe57fe5b60200260200101909081815260200150505b806001019050805061114d565b508091505061122856505b949350505050565b803373ffffffffffffffffffffffffffffffffffffffff166002600050600083815260200190815260200160002060009054906101000a900473ffffffffffffffffffffffffffffffffffffffff1673ffffffffffffffffffffffffffffffffffffffff161415156112a25760006000fd5b817f6bb7ff708619ba0610cba295a58592e0451dee2622938c8755667688daf3529b858560405180806020018281038252848482818152602001925080828437600081840152601f19601f820116905080830192505050935050505060405180910390a25b5b50505050565b80600160005060003373ffffffffffffffffffffffffffffffffffffffff1673ffffffffffffffffffffffffffffffffffffffff16815260200190815260200160002060005060008473ffffffffffffffffffffffffffffffffffffffff1673ffffffffffffffffffffffffffffffffffffffff16815260200190815260200160002060006101000a81548160ff0219169083151502179055508173ffffffffffffffffffffffffffffffffffffffff163373ffffffffffffffffffffffffffffffffffffffff167f17307eab39ab6107e8899845ad3d59bd9653f200f220920489ca2b5937696c3183604051808215151515815260200191505060405180910390a35b5050565b60036000505481565b600260005060205280600052604060002060009150909054906101000a900473ffffffffffffffffffffffffffffffffffffffff1681565b843373ffffffffffffffffffffffffffffffffffffffff166002600050600083815260200190815260200160002060009054906101000a900473ffffffffffffffffffffffffffffffffffffffff1673ffffffffffffffffffffffffffffffffffffffff161415156114c95760006000fd5b6000600090505b858590508110156116d657600086868381811015156114eb57fe5b9050602002013573ffffffffffffffffffffffffffffffffffffffff1690506000858584818110151561151a57fe5b90506020020135905061158f600060005060008b815260200190815260200160002060005060008473ffffffffffffffffffffffffffffffffffffffff1673ffffffffffffffffffffffffffffffffffffffff1681526020019081526020016000206000505482611cc790919063ffffffff16565b600060005060008b815260200190815260200160002060005060008473ffffffffffffffffffffffffffffffffffffffff1673ffffffffffffffffffffffffffffffffffffffff1681526020019081526020016000206000508190909055508173ffffffffffffffffffffffffffffffffffffffff16600073ffffffffffffffffffffffffffffffffffffffff163373ffffffffffffffffffffffffffffffffffffffff167fc3d58168c5ae7397731d063d5bbf3d657854427343f4c083240f7aacaa2d0f628c85604051808381526020018281526020019250505060405180910390a461169a8273ffffffffffffffffffffffffffffffffffffffff16611cea909063ffffffff16565b156116c6576116c53333848c8560405180602001604052806000815260200150611f9e63ffffffff16565b5b50505b80600101905080506114d0565b505b5b505050505050565b6000600160005060008473ffffffffffffffffffffffffffffffffffffffff1673ffffffffffffffffffffffffffffffffffffffff16815260200190815260200160002060005060008373ffffffffffffffffffffffffffffffffffffffff1673ffffffffffffffffffffffffffffffffffffffff16815260200190815260200160002060009054906101000a900460ff16905061177a565b92915050565b600073ffffffffffffffffffffffffffffffffffffffff168573ffffffffffffffffffffffffffffffffffffffff1614151515611828576040517f08c379a00000000000000000000000000000000000000000000000000000000081526004018080602001828103825260158152602001807f5f746f206d757374206265206e6f6e2d7a65726f2e000000000000000000000081526020015060200191505060405180910390fd5b3373ffffffffffffffffffffffffffffffffffffffff168673ffffffffffffffffffffffffffffffffffffffff1614806118f5575060011515600160005060008873ffffffffffffffffffffffffffffffffffffffff1673ffffffffffffffffffffffffffffffffffffffff16815260200190815260200160002060005060003373ffffffffffffffffffffffffffffffffffffffff1673ffffffffffffffffffffffffffffffffffffffff16815260200190815260200160002060009054906101000a900460ff161515145b151561194c576040517f08c379a000000000000000000000000000000000000000000000000000000000815260040180806020018281038252602f8152602001806121da602f913960400191505060405180910390fd5b6119b8836000600050600087815260200190815260200160002060005060008973ffffffffffffffffffffffffffffffffffffffff1673ffffffffffffffffffffffffffffffffffffffff16815260200190815260200160002060005054611ca990919063ffffffff16565b6000600050600086815260200190815260200160002060005060008873ffffffffffffffffffffffffffffffffffffffff1673ffffffffffffffffffffffffffffffffffffffff168152602001908152602001600020600050819090905550611a836000600050600086815260200190815260200160002060005060008773ffffffffffffffffffffffffffffffffffffffff1673ffffffffffffffffffffffffffffffffffffffff1681526020019081526020016000206000505484611cc790919063ffffffff16565b6000600050600086815260200190815260200160002060005060008773ffffffffffffffffffffffffffffffffffffffff1673ffffffffffffffffffffffffffffffffffffffff1681526020019081526020016000206000508190909055508473ffffffffffffffffffffffffffffffffffffffff168673ffffffffffffffffffffffffffffffffffffffff163373ffffffffffffffffffffffffffffffffffffffff167fc3d58168c5ae7397731d063d5bbf3d657854427343f4c083240f7aacaa2d0f628787604051808381526020018281526020019250505060405180910390a4611b8d8573ffffffffffffffffffffffffffffffffffffffff16611cea909063ffffffff16565b15611beb57611bea338787878787878080601f016020809104026020016040519081016040528093929190818152602001838380828437600081840152601f19601f82011690508083019250505050505050611f9e63ffffffff16565b5b5b505050505050565b60006301ffc9a760e01b7bffffffffffffffffffffffffffffffffffffffffffffffffffffffff1916827bffffffffffffffffffffffffffffffffffffffffffffffffffffffff19161480611c8d575063d9b67a2660e01b7bffffffffffffffffffffffffffffffffffffffffffffffffffffffff1916827bffffffffffffffffffffffffffffffffffffffffffffffffffffffff1916145b15611c9b5760019050611ca4565b60009050611ca4565b919050565b6000828211151515611cb757fe5b8183039050611cc1565b92915050565b600081830190508050828110151515611cdc57fe5b809050611ce4565b92915050565b60006000823b905060008111915050611cff56505b919050565b63bc197c8160e01b7bffffffffffffffffffffffffffffffffffffffffffffffffffffffff19168473ffffffffffffffffffffffffffffffffffffffff1663bc197c8188888787876040518663ffffffff1660e01b8152600401808673ffffffffffffffffffffffffffffffffffffffff1673ffffffffffffffffffffffffffffffffffffffff1681526020018573ffffffffffffffffffffffffffffffffffffffff1673ffffffffffffffffffffffffffffffffffffffff168152602001806020018060200180602001848103845287818151815260200191508051906020019060200280838360005b83811015611e0b5780820151818401525b602081019050611def565b50505050905001848103835286818151815260200191508051906020019060200280838360005b83811015611e4e5780820151818401525b602081019050611e32565b50505050905001848103825285818151815260200191508051906020019080838360005b83811015611e8e5780820151818401525b602081019050611e72565b50505050905090810190601f168015611ebb5780820380516001836020036101000a031916815260200191505b5098505050505050505050602060405180830381600087803b158015611ee15760006000fd5b505af1158015611ef6573d600060003e3d6000fd5b505050506040513d6020811015611f0d5760006000fd5b81019080805190602001909291905050507bffffffffffffffffffffffffffffffffffffffffffffffffffffffff1916141515611f95576040517f08c379a000000000000000000000000000000000000000000000000000000000815260040180806020018281038252603e815260200180612209603e913960400191505060405180910390fd5b5b505050505050565b63f23a6e6160e01b7bffffffffffffffffffffffffffffffffffffffffffffffffffffffff19168473ffffffffffffffffffffffffffffffffffffffff1663f23a6e6188888787876040518663ffffffff1660e01b8152600401808673ffffffffffffffffffffffffffffffffffffffff1673ffffffffffffffffffffffffffffffffffffffff1681526020018573ffffffffffffffffffffffffffffffffffffffff1673ffffffffffffffffffffffffffffffffffffffff16815260200184815260200183815260200180602001828103825283818151815260200191508051906020019080838360005b838110156120a65780820151818401525b60208101905061208a565b50505050905090810190601f1680156120d35780820380516001836020036101000a031916815260200191505b509650505050505050602060405180830381600087803b1580156120f75760006000fd5b505af115801561210c573d600060003e3d6000fd5b505050506040513d60208110156121235760006000fd5b81019080805190602001909291905050507bffffffffffffffffffffffffffffffffffffffffffffffffffffffff19161415156121ab576040517f08c379a00000000000000000000000000000000000000000000000000000000081526004018080602001828103825260398152602001806122706039913960400191505060405180910390fd5b5b50505050505056fe64657374696e6174696f6e2061646472657373206d757374206265206e6f6e2d7a65726f2e4e656564206f70657261746f7220617070726f76616c20666f7220337264207061727479207472616e73666572732e636f6e74726163742072657475726e656420616e20756e6b6e6f776e2076616c75652066726f6d206f6e45524331313535426174636852656365697665645f69647320616e64205f76616c756573206172726179206c656e676874206d757374206d617463682e636f6e74726163742072657475726e656420616e20756e6b6e6f776e2076616c75652066726f6d206f6e455243313135355265636569766564a265627a7a72305820a4870d7bbc9ca493effc871d2d3c4aec4b0f4311388f380f92aa1d0abec0d34c64736f6c634300050a0032436f6e747261637420696e7374616e63652068617320616c7265616479206265656e20696e697469616c697a6564a265627a7a72305820ad38bdbb12f74dd9b7e850b5419dcd6f9a193596293745d021401ac8d4dc860e64736f6c634300050a0032","compiler":{"name":"solc","version":"0.5.10+commit.5a6ea5b1.Emscripten.clang","optimizer":{},"evmVersion":"constantinople"}}