{"fileName":"DelegatesStorage.sol","contractName":"ProxyReceiverStorage_002_ERCXXXXFuture","source":"pragma solidity ^0.5.0;\n\nimport \"../ProxyBaseStorage.sol\";\n\n///////////////////////////////////////////////////////////////////////////////////////////////////\n/**\n * @title DelegatesStorage\n * @dev Defining storage inheritance for the delegate contract(s).\n *      Note:   This is not the only way to define your storage, DYOR.\n */\n///////////////////////////////////////////////////////////////////////////////////////////////////\n\ncontract ProxyReceiverStorage_001_ERC1155MockReceiver is ProxyBaseStorage {\n\n    //////////////////////////////////////////// VARS /////////////////////////////////////////////\n\n    // Note: if you alter these values in another delegate impl it affects this too\n    bool public shouldReject;\n\n    ///////////////////////////////////////////////////////////////////////////////////////////////\n\n}\n\n///////////////////////////////////////////////////////////////////////////////////////////////////\n\ncontract ProxyReceiverStorage_002_ERCXXXXFuture is ProxyReceiverStorage_001_ERC1155MockReceiver {\n\n    //////////////////////////////////////////// VARS /////////////////////////////////////////////\n\n    bool public shouldRejectXXXX; // var renamed to be specific to prevent clash with parent data version\n\n    ///////////////////////////////////////////////////////////////////////////////////////////////\n\n}\n\n///////////////////////////////////////////////////////////////////////////////////////////////////","sourcePath":"contracts/erc-1155/contracts/ProxyReceiver/Delegates/DelegatesStorage.sol","abi":[{"constant":true,"inputs":[],"name":"shouldReject","outputs":[{"name":"","type":"bool"}],"payable":false,"stateMutability":"view","type":"function"},{"constant":true,"inputs":[],"name":"shouldRejectXXXX","outputs":[{"name":"","type":"bool"}],"payable":false,"stateMutability":"view","type":"function"},{"constant":true,"inputs":[{"name":"","type":"bytes4"}],"name":"delegates","outputs":[{"name":"","type":"address"}],"payable":false,"stateMutability":"view","type":"function"}],"bytecode":"0x60806040523480156100115760006000fd5b50610017565b6101b1806100266000396000f3fe60806040523480156100115760006000fd5b50600436106100465760003560e01c80631dbb93811461004c57806391ad57bd1461006e578063a0a2daf01461009057610046565b60006000fd5b61005461011e565b604051808215151515815260200191505060405180910390f35b610076610131565b604051808215151515815260200191505060405180910390f35b6100dc600480360360208110156100a75760006000fd5b8101908080357bffffffffffffffffffffffffffffffffffffffffffffffffffffffff19169060200190929190505050610144565b604051808273ffffffffffffffffffffffffffffffffffffffff1673ffffffffffffffffffffffffffffffffffffffff16815260200191505060405180910390f35b600360149054906101000a900460ff1681565b600360159054906101000a900460ff1681565b600060005060205280600052604060002060009150909054906101000a900473ffffffffffffffffffffffffffffffffffffffff168156fea265627a7a72305820354fdba5bbeb12eb285b4f98bc337eef26ad2d96b2777740e3e52ae059708aa364736f6c634300050a0032","compiler":{"name":"solc","version":"0.5.10+commit.5a6ea5b1.Emscripten.clang","optimizer":{},"evmVersion":"constantinople"}}