{"fileName":"ProxyBaseStorage.sol","contractName":"ProxyBaseStorage","source":"pragma solidity ^0.5.0;\n\n///////////////////////////////////////////////////////////////////////////////////////////////////\n/**\n * @title ProxyBaseStorage\n * @dev Defining base storage for the proxy contract.\n */\n///////////////////////////////////////////////////////////////////////////////////////////////////\n\ncontract ProxyBaseStorage {\n\n    //////////////////////////////////////////// VARS /////////////////////////////////////////////\n\n    // maps functions to the delegate contracts that execute the functions.\n    // funcId => delegate contract\n    mapping(bytes4 => address) public delegates;\n\n    // array of function signatures supported by the contract.\n    bytes[] internal funcSignatures;\n\n    // maps each function signature to its position in the funcSignatures array.\n    // signature => index+1\n    mapping(bytes => uint256) internal funcSignatureToIndex;\n\n    // proxy address of itself, can be used for cross-delegate calls but also safety checking.\n    address proxy;\n\n    ///////////////////////////////////////////////////////////////////////////////////////////////\n\n}\n","sourcePath":"contracts/erc-1155/contracts/ProxyReceiver/ProxyBaseStorage.sol","abi":[{"constant":true,"inputs":[{"name":"","type":"bytes4"}],"name":"delegates","outputs":[{"name":"","type":"address"}],"payable":false,"stateMutability":"view","type":"function"}],"bytecode":"0x60806040523480156100115760006000fd5b50610017565b61012a806100266000396000f3fe608060405234801560105760006000fd5b5060043610602c5760003560e01c8063a0a2daf014603257602c565b60006000fd5b607b6004803603602081101560475760006000fd5b8101908080357bffffffffffffffffffffffffffffffffffffffffffffffffffffffff1916906020019092919050505060bd565b604051808273ffffffffffffffffffffffffffffffffffffffff1673ffffffffffffffffffffffffffffffffffffffff16815260200191505060405180910390f35b600060005060205280600052604060002060009150909054906101000a900473ffffffffffffffffffffffffffffffffffffffff168156fea265627a7a7230582053caa4054d53e0cddcfdf98570f7c9829bfed7c8d9682bca0d8fbf91649620d664736f6c634300050a0032","compiler":{"name":"solc","version":"0.5.10+commit.5a6ea5b1.Emscripten.clang","optimizer":{},"evmVersion":"constantinople"}}