{"fileName":"DelegatesStorage.sol","contractName":"ProxyReceiverStorage_001_ERC1155MockReceiver","source":"pragma solidity ^0.5.0;\n\nimport \"../ProxyBaseStorage.sol\";\n\n///////////////////////////////////////////////////////////////////////////////////////////////////\n/**\n * @title DelegatesStorage\n * @dev Defining storage inheritance for the delegate contract(s).\n *      Note:   This is not the only way to define your storage, DYOR.\n */\n///////////////////////////////////////////////////////////////////////////////////////////////////\n\ncontract ProxyReceiverStorage_001_ERC1155MockReceiver is ProxyBaseStorage {\n\n    //////////////////////////////////////////// VARS /////////////////////////////////////////////\n\n    // Note: if you alter these values in another delegate impl it affects this too\n    bool public shouldReject;\n\n    ///////////////////////////////////////////////////////////////////////////////////////////////\n\n}\n\n///////////////////////////////////////////////////////////////////////////////////////////////////\n\ncontract ProxyReceiverStorage_002_ERCXXXXFuture is ProxyReceiverStorage_001_ERC1155MockReceiver {\n\n    //////////////////////////////////////////// VARS /////////////////////////////////////////////\n\n    bool public shouldRejectXXXX; // var renamed to be specific to prevent clash with parent data version\n\n    ///////////////////////////////////////////////////////////////////////////////////////////////\n\n}\n\n///////////////////////////////////////////////////////////////////////////////////////////////////","sourcePath":"contracts/erc-1155/contracts/ProxyReceiver/Delegates/DelegatesStorage.sol","abi":[{"constant":true,"inputs":[],"name":"shouldReject","outputs":[{"name":"","type":"bool"}],"payable":false,"stateMutability":"view","type":"function"},{"constant":true,"inputs":[{"name":"","type":"bytes4"}],"name":"delegates","outputs":[{"name":"","type":"address"}],"payable":false,"stateMutability":"view","type":"function"}],"bytecode":"0x60806040523480156100115760006000fd5b50610017565b610171806100266000396000f3fe60806040523480156100115760006000fd5b506004361061003b5760003560e01c80631dbb938114610041578063a0a2daf0146100635761003b565b60006000fd5b6100496100f1565b604051808215151515815260200191505060405180910390f35b6100af6004803603602081101561007a5760006000fd5b8101908080357bffffffffffffffffffffffffffffffffffffffffffffffffffffffff19169060200190929190505050610104565b604051808273ffffffffffffffffffffffffffffffffffffffff1673ffffffffffffffffffffffffffffffffffffffff16815260200191505060405180910390f35b600360149054906101000a900460ff1681565b600060005060205280600052604060002060009150909054906101000a900473ffffffffffffffffffffffffffffffffffffffff168156fea265627a7a723058209349cfd531323628ae53fb7b0102858b94adbdf55a88600be02a43b545baa77064736f6c634300050a0032","compiler":{"name":"solc","version":"0.5.10+commit.5a6ea5b1.Emscripten.clang","optimizer":{},"evmVersion":"constantinople"}}