{"fileName":"ProxyReceiver.sol","contractName":"ProxyReceiver","source":"pragma solidity ^0.5.0;\n\nimport \"./IERC1538.sol\";\nimport \"./ProxyBaseStorage.sol\";\n\n///////////////////////////////////////////////////////////////////////////////////////////////////\n/**\n * @title ProxyReceiver Contract\n * @dev Handles forwarding calls to receiver delegates while offering transparency of updates.\n *      Follows ERC-1538 standard.\n *\n *    NOTE: Not recommended for direct use in a production contract, as no security control.\n *          Provided as simple example only.\n */\n///////////////////////////////////////////////////////////////////////////////////////////////////\n\ncontract ProxyReceiver is ProxyBaseStorage, IERC1538 {\n\n    /////////////////////////////////////////// VARIABLES /////////////////////////////////////////\n\n    ////////////////////////////////////////// MODIFIERS //////////////////////////////////////////\n\n    /////////////////////////////////////////// EVENTS ////////////////////////////////////////////\n\n    ///////////////////////////////////////// CONSTANTS ///////////////////////////////////////////\n\n    ///////////////////////////////////////////////////////////////////////////////////////////////\n\n    constructor() public {\n\n        proxy = address(this);\n\n        //Adding ERC1538 updateContract function\n        bytes memory signature = \"updateContract(address,string,string)\";\n        bytes4 funcId = bytes4(keccak256(signature));\n        delegates[funcId] = proxy;\n        funcSignatures.push(signature);\n        funcSignatureToIndex[signature] = funcSignatures.length;\n        emit FunctionUpdate(funcId, address(0), proxy, string(signature));\n        emit CommitMessage(\"Added ERC1538 updateContract function at contract creation\");\n    }\n\n    ///////////////////////////////////////////////////////////////////////////////////////////////\n\n    function() external payable {\n        address delegate = delegates[msg.sig];\n        require(delegate != address(0), \"Function does not exist.\");\n        assembly {\n            let ptr := mload(0x40)\n            calldatacopy(ptr, 0, calldatasize)\n            let result := delegatecall(gas, delegate, ptr, calldatasize, 0, 0)\n            let size := returndatasize\n            returndatacopy(ptr, 0, size)\n            switch result\n            case 0 {revert(ptr, size)}\n            default {return (ptr, size)}\n        }\n    }\n\n    ///////////////////////////////////////////////////////////////////////////////////////////////\n\n    /// @notice Updates functions in a transparent contract.\n    /// @dev If the value of _delegate is zero then the functions specified\n    ///  in _functionSignatures are removed.\n    ///  If the value of _delegate is a delegate contract address then the functions\n    ///  specified in _functionSignatures will be delegated to that address.\n    /// @param _delegate The address of a delegate contract to delegate to or zero\n    /// @param _functionSignatures A list of function signatures listed one after the other\n    /// @param _commitMessage A short description of the change and why it is made\n    ///        This message is passed to the CommitMessage event.\n    function updateContract(address _delegate, string calldata _functionSignatures, string calldata _commitMessage) external {\n\n        // ***\n        // NEEDS SECURITY ADDING HERE, SUGGEST MULTI-ADDRESS APPROVAL SYSTEM OR EQUIVALENT.\n        // ***\n\n        // pos is first used to check the size of the delegate contract.\n        // After that pos is the current memory location of _functionSignatures.\n        // It is used to move through the characters of _functionSignatures\n        uint256 pos;\n        if(_delegate != address(0)) {\n            assembly {\n                pos := extcodesize(_delegate)\n            }\n            require(pos > 0, \"_delegate address is not a contract and is not address(0)\");\n        }\n\n        // creates a bytes version of _functionSignatures\n        bytes memory signatures = bytes(_functionSignatures);\n        // stores the position in memory where _functionSignatures ends.\n        uint256 signaturesEnd;\n        // stores the starting position of a function signature in _functionSignatures\n        uint256 start;\n        assembly {\n            pos := add(signatures,32)\n            start := pos\n            signaturesEnd := add(pos,mload(signatures))\n        }\n        // the function id of the current function signature\n        bytes4 funcId;\n        // the delegate address that is being replaced or address(0) if removing functions\n        address oldDelegate;\n        // the length of the current function signature in _functionSignatures\n        uint256 num;\n        // the current character in _functionSignatures\n        uint256 char;\n        // the position of the current function signature in the funcSignatures array\n        uint256 index;\n        // the last position in the funcSignatures array\n        uint256 lastIndex;\n        // parse the _functionSignatures string and handle each function\n        for (; pos < signaturesEnd; pos++) {\n            assembly {char := byte(0,mload(pos))}\n            // 0x29 == )\n            if (char == 0x29) {\n                pos++;\n                num = (pos - start);\n                start = pos;\n                assembly {\n                    mstore(signatures,num)\n                }\n                funcId = bytes4(keccak256(signatures));\n                oldDelegate = delegates[funcId];\n                if(_delegate == address(0)) {\n                    index = funcSignatureToIndex[signatures];\n                    require(index != 0, \"Function does not exist.\");\n                    index--;\n                    lastIndex = funcSignatures.length - 1;\n                    if (index != lastIndex) {\n                        funcSignatures[index] = funcSignatures[lastIndex];\n                        funcSignatureToIndex[funcSignatures[lastIndex]] = index + 1;\n                    }\n                    funcSignatures.length--;\n                    delete funcSignatureToIndex[signatures];\n                    delete delegates[funcId];\n                    emit FunctionUpdate(funcId, oldDelegate, address(0), string(signatures));\n                }\n                else if (funcSignatureToIndex[signatures] == 0) {\n                    require(oldDelegate == address(0), \"FuncId clash.\");\n                    delegates[funcId] = _delegate;\n                    funcSignatures.push(signatures);\n                    funcSignatureToIndex[signatures] = funcSignatures.length;\n                    emit FunctionUpdate(funcId, address(0), _delegate, string(signatures));\n                }\n                else if (delegates[funcId] != _delegate) {\n                    delegates[funcId] = _delegate;\n                    emit FunctionUpdate(funcId, oldDelegate, _delegate, string(signatures));\n\n                }\n                assembly {signatures := add(signatures,num)}\n            }\n        }\n        emit CommitMessage(_commitMessage);\n    }\n\n    ///////////////////////////////////////////////////////////////////////////////////////////////\n\n}\n\n///////////////////////////////////////////////////////////////////////////////////////////////////\n","sourcePath":"contracts/erc-1155/contracts/ProxyReceiver/ProxyReceiver.sol","abi":[{"constant":false,"inputs":[{"name":"_delegate","type":"address"},{"name":"_functionSignatures","type":"string"},{"name":"_commitMessage","type":"string"}],"name":"updateContract","outputs":[],"payable":false,"stateMutability":"nonpayable","type":"function"},{"constant":true,"inputs":[{"name":"","type":"bytes4"}],"name":"delegates","outputs":[{"name":"","type":"address"}],"payable":false,"stateMutability":"view","type":"function"},{"inputs":[],"payable":false,"stateMutability":"nonpayable","type":"constructor"},{"payable":true,"stateMutability":"payable","type":"fallback"},{"anonymous":false,"inputs":[{"indexed":false,"name":"message","type":"string"}],"name":"CommitMessage","type":"event"},{"anonymous":false,"inputs":[{"indexed":true,"name":"functionId","type":"bytes4"},{"indexed":true,"name":"oldDelegate","type":"address"},{"indexed":true,"name":"newDelegate","type":"address"},{"indexed":false,"name":"functionSignature","type":"string"}],"name":"FunctionUpdate","type":"event"}],"bytecode":"0x6080604052348015620000125760006000fd5b505b30600360006101000a81548173ffffffffffffffffffffffffffffffffffffffff021916908373ffffffffffffffffffffffffffffffffffffffff160217905550606060405180606001604052806025815260200162001613602591399050600081805190602001209050600360009054906101000a900473ffffffffffffffffffffffffffffffffffffffff1660006000506000837bffffffffffffffffffffffffffffffffffffffffffffffffffffffff19167bffffffffffffffffffffffffffffffffffffffffffffffffffffffff1916815260200190815260200160002060006101000a81548173ffffffffffffffffffffffffffffffffffffffff021916908373ffffffffffffffffffffffffffffffffffffffff16021790555060016000508290806001815401808255809150509060018203906000526020600020900160005b909192909190915090805190602001906200017892919062000363565b50506001600050805490506002600050836040518082805190602001908083835b602083101515620001c157805182525b60208201915060208101905060208303925062000199565b6001836020036101000a0380198251168184511680821785525050505050509050019150509081526020016040518091039020600050819090905550600360009054906101000a900473ffffffffffffffffffffffffffffffffffffffff1673ffffffffffffffffffffffffffffffffffffffff16600073ffffffffffffffffffffffffffffffffffffffff16827bffffffffffffffffffffffffffffffffffffffffffffffffffffffff19167f3234040ce3bd4564874e44810f198910133a1b24c4e84aac87edbf6b458f5353856040518080602001828103825283818151815260200191508051906020019080838360005b83811015620002d35780820151818401525b602081019050620002b5565b50505050905090810190601f168015620003015780820380516001836020036101000a031916815260200191505b509250505060405180910390a47faa1c0a0a78cec2470f9652e5d29540752e7a64d70f926933cebf13afaeda45de60405180806020018281038252603a81526020018062001638603a913960400191505060405180910390a150505b6200041e565b828054600181600116156101000203166002900490600052602060002090601f016020900481019282601f10620003a657805160ff1916838001178555620003dc565b82800160010185558215620003dc579182015b82811115620003db5782518260005090905591602001919060010190620003b9565b5b509050620003eb9190620003ef565b5090565b6200041b9190620003fb565b80821115620004175760008181506000905550600101620003fb565b5090565b90565b6111e5806200042e6000396000f3fe60806040526004361061002d5760003560e01c806361455567146101a7578063a0a2daf0146102ae5761002d565b5b6000600060005060006000357fffffffff00000000000000000000000000000000000000000000000000000000167bffffffffffffffffffffffffffffffffffffffffffffffffffffffff19167bffffffffffffffffffffffffffffffffffffffffffffffffffffffff1916815260200190815260200160002060009054906101000a900473ffffffffffffffffffffffffffffffffffffffff169050600073ffffffffffffffffffffffffffffffffffffffff168173ffffffffffffffffffffffffffffffffffffffff1614151515610173576040517f08c379a00000000000000000000000000000000000000000000000000000000081526004018080602001828103825260188152602001807f46756e6374696f6e20646f6573206e6f742065786973742e000000000000000081526020015060200191505060405180910390fd5b6040513660008237600060003683855af43d806000843e816000811461019b578184f361019f565b8184fd5b50505050505b005b3480156101b45760006000fd5b506102ac600480360360608110156101cc5760006000fd5b81019080803573ffffffffffffffffffffffffffffffffffffffff1690602001909291908035906020019064010000000081111561020a5760006000fd5b82018360208201111561021d5760006000fd5b803590602001918460018302840111640100000000831117156102405760006000fd5b90919293909091929390803590602001906401000000008111156102645760006000fd5b8201836020820111156102775760006000fd5b8035906020019184600183028401116401000000008311171561029a5760006000fd5b9091929390909192939050505061034a565b005b3480156102bb5760006000fd5b50610308600480360360208110156102d35760006000fd5b8101908080357bffffffffffffffffffffffffffffffffffffffffffffffffffffffff19169060200190929190505050610f64565b604051808273ffffffffffffffffffffffffffffffffffffffff1673ffffffffffffffffffffffffffffffffffffffff16815260200191505060405180910390f35b6000600073ffffffffffffffffffffffffffffffffffffffff168673ffffffffffffffffffffffffffffffffffffffff161415156103e257853b90506000811115156103e1576040517f08c379a00000000000000000000000000000000000000000000000000000000081526004018080602001828103825260398152602001806111786039913960400191505060405180910390fd5b5b606085858080601f016020809104026020016040519081016040528093929190818152602001838380828437600081840152601f19601f820116905080830192505050505050509050600060006020830193508390508251840191506000600060006000600060005b878a1015610eef57895160001a92506029831415610ee15789806001019a5050868a0393508350899650865083895288805190602001209550855060006000506000877bffffffffffffffffffffffffffffffffffffffffffffffffffffffff19167bffffffffffffffffffffffffffffffffffffffffffffffffffffffff1916815260200190815260200160002060009054906101000a900473ffffffffffffffffffffffffffffffffffffffff1694508450600073ffffffffffffffffffffffffffffffffffffffff168f73ffffffffffffffffffffffffffffffffffffffff161415610946576002600050896040518082805190602001908083835b60208310151561057057805182525b60208201915060208101905060208303925061054a565b6001836020036101000a0380198251168184511680821785525050505050509050019150509081526020016040518091039020600050549150815060008214151515610627576040517f08c379a00000000000000000000000000000000000000000000000000000000081526004018080602001828103825260188152602001807f46756e6374696f6e20646f6573206e6f742065786973742e000000000000000081526020015060200191505060405180910390fd5b81806001900392505060016001600050805490500390508050808214151561074d5760016000508181548110151561065b57fe5b906000526020600020900160005b5060016000508381548110151561067c57fe5b906000526020600020900160005b5090805460018160011615610100020316600290046106aa929190610f9c565b506001820160026000506001600050838154811015156106c657fe5b906000526020600020900160005b5060405180828054600181600116156101000203166002900480156107305780601f1061070e576101008083540402835291820191610730565b820191906000526020600020905b81548152906001019060200180831161071c575b505091505090815260200160405180910390206000508190909055505b600160005080548091906001900390906107679190611023565b506002600050896040518082805190602001908083835b6020831015156107a457805182525b60208201915060208101905060208303925061077e565b6001836020036101000a03801982511681845116808217855250505050505090500191505090815260200160405180910390206000506000905560006000506000877bffffffffffffffffffffffffffffffffffffffffffffffffffffffff19167bffffffffffffffffffffffffffffffffffffffffffffffffffffffff1916815260200190815260200160002060006101000a81549073ffffffffffffffffffffffffffffffffffffffff0219169055600073ffffffffffffffffffffffffffffffffffffffff168573ffffffffffffffffffffffffffffffffffffffff16877bffffffffffffffffffffffffffffffffffffffffffffffffffffffff19167f3234040ce3bd4564874e44810f198910133a1b24c4e84aac87edbf6b458f53538c6040518080602001828103825283818151815260200191508051906020019080838360005b838110156109075780820151818401525b6020810190506108eb565b50505050905090810190601f1680156109345780820380516001836020036101000a031916815260200191505b509250505060405180910390a4610edb565b600060026000508a6040518082805190602001908083835b60208310151561098457805182525b60208201915060208101905060208303925061095e565b6001836020036101000a0380198251168184511680821785525050505050509050019150509081526020016040518091039020600050541415610cb157600073ffffffffffffffffffffffffffffffffffffffff168573ffffffffffffffffffffffffffffffffffffffff16141515610a68576040517f08c379a000000000000000000000000000000000000000000000000000000000815260040180806020018281038252600d8152602001807f46756e63496420636c6173682e0000000000000000000000000000000000000081526020015060200191505060405180910390fd5b8e60006000506000887bffffffffffffffffffffffffffffffffffffffffffffffffffffffff19167bffffffffffffffffffffffffffffffffffffffffffffffffffffffff1916815260200190815260200160002060006101000a81548173ffffffffffffffffffffffffffffffffffffffff021916908373ffffffffffffffffffffffffffffffffffffffff16021790555060016000508990806001815401808255809150509060018203906000526020600020900160005b90919290919091509080519060200190610b3d92919061104f565b505060016000508054905060026000508a6040518082805190602001908083835b602083101515610b8457805182525b602082019150602081019050602083039250610b5e565b6001836020036101000a03801982511681845116808217855250505050505090500191505090815260200160405180910390206000508190909055508e73ffffffffffffffffffffffffffffffffffffffff16600073ffffffffffffffffffffffffffffffffffffffff16877bffffffffffffffffffffffffffffffffffffffffffffffffffffffff19167f3234040ce3bd4564874e44810f198910133a1b24c4e84aac87edbf6b458f53538c6040518080602001828103825283818151815260200191508051906020019080838360005b83811015610c725780820151818401525b602081019050610c56565b50505050905090810190601f168015610c9f5780820380516001836020036101000a031916815260200191505b509250505060405180910390a4610eda565b8e73ffffffffffffffffffffffffffffffffffffffff1660006000506000887bffffffffffffffffffffffffffffffffffffffffffffffffffffffff19167bffffffffffffffffffffffffffffffffffffffffffffffffffffffff1916815260200190815260200160002060009054906101000a900473ffffffffffffffffffffffffffffffffffffffff1673ffffffffffffffffffffffffffffffffffffffff16141515610ed9578e60006000506000887bffffffffffffffffffffffffffffffffffffffffffffffffffffffff19167bffffffffffffffffffffffffffffffffffffffffffffffffffffffff1916815260200190815260200160002060006101000a81548173ffffffffffffffffffffffffffffffffffffffff021916908373ffffffffffffffffffffffffffffffffffffffff1602179055508e73ffffffffffffffffffffffffffffffffffffffff168573ffffffffffffffffffffffffffffffffffffffff16877bffffffffffffffffffffffffffffffffffffffffffffffffffffffff19167f3234040ce3bd4564874e44810f198910133a1b24c4e84aac87edbf6b458f53538c6040518080602001828103825283818151815260200191508051906020019080838360005b83811015610e9e5780820151818401525b602081019050610e82565b50505050905090810190601f168015610ecb5780820380516001836020036101000a031916815260200191505b509250505060405180910390a45b5b5b83890198505b5b89806001019a505061044b565b7faa1c0a0a78cec2470f9652e5d29540752e7a64d70f926933cebf13afaeda45de8c8c60405180806020018281038252848482818152602001925080828437600081840152601f19601f820116905080830192505050935050505060405180910390a1505050505050505050505b5050505050565b600060005060205280600052604060002060009150909054906101000a900473ffffffffffffffffffffffffffffffffffffffff1681565b828054600181600116156101000203166002900490600052602060002090601f016020900481019282601f10610fd55780548555611012565b8280016001018555821561101257600052602060002091601f016020900482015b82811115611011578254825591600101919060010190610ff6565b5b50905061101f91906110d4565b5090565b81548183558181111561104a5781836000526020600020918201910161104991906110ff565b5b505050565b828054600181600116156101000203166002900490600052602060002090601f016020900481019282601f1061109057805160ff19168380011785556110c3565b828001600101855582156110c3579182015b828111156110c257825182600050909055916020019190600101906110a2565b5b5090506110d091906110d4565b5090565b6110fc91906110de565b808211156110f857600081815060009055506001016110de565b5090565b90565b61112c9190611109565b80821115611128576000818161111f919061112f565b50600101611109565b5090565b90565b50805460018160011615610100020316600290046000825580601f106111555750611174565b601f01602090049060005260206000209081019061117391906110d4565b5b5056fe5f64656c65676174652061646472657373206973206e6f74206120636f6e747261637420616e64206973206e6f742061646472657373283029a265627a7a7230582074444de5dabb7d6963fd63bade6d7d73e5e4a16075f56ad6f0edd30e934b85a364736f6c634300050a0032757064617465436f6e747261637428616464726573732c737472696e672c737472696e67294164646564204552433135333820757064617465436f6e74726163742066756e6374696f6e20617420636f6e7472616374206372656174696f6e","compiler":{"name":"solc","version":"0.5.10+commit.5a6ea5b1.Emscripten.clang","optimizer":{},"evmVersion":"constantinople"}}